:100000000C94B4010C94D1010C94D1010C94D10145
:100010000C94D1010C94D1010C94D1010C94D10118
:100020000C94D1010C94D1010C94D1010C94D10108
:100030000C94D1010C94D1010C94D1010C94D101F8
:100040000C94D1010C94D1010C94D1010C94D101E8
:100050000C94D1010C94D1010C94D1010C94D101D8
:100060000C94D1010C94D1010C94D1010C94D101C8
:10007000000000000000000000065F5F06000000B6
:100080000007070007070000147F7F147F7F14001C
:10009000242E6B6B3A120000466630180C66620024
:1000A000307A4F5D377A48000407030000000000F3
:1000B000001C3E63410000000041633E1C00000044
:1000C000082A3E1C1C3E2A0808083E3E080800007C
:1000D00000A0E06000000000080808080808000010
:1000E00000006060000000006030180C0603010092
:1000F0003E7F594D7F3E000042427F7F40400000DE
:10010000627359496F660000226349497F360000D7
:10011000181C16137F7F1000276745457D390000A6
:100120003C7E4B4979300000036371190F070000D2
:10013000367F49497F360000064F49693F1E00005F
:1001400000006C6C0000000000A0EC6C00000000DF
:10015000081C366341000000141414141414000029
:10016000004163361C080000020351590F060000CD
:100170003E7F415D5D1F1E007C7E13137E7C000070
:10018000417F7F49497F36001C3E63414163220025
:10019000417F7F41637F1C00417F7F495D41630058
:1001A000417F7F491D0103001C3E63415173720072
:1001B0007F7F08087F7F000000417F7F41000000B3
:1001C000307040417F3F0100417F7F081C77630012
:1001D000417F7F41406070007F7F060C067F7F007B
:1001E0007F7F060C187F7F001C3E6341633E1C002E
:1001F000417F7F49090F06001E3F21717F5E00008D
:10020000417F7F19396F460026674D597B320000C8
:1002100003417F7F410300007F7F40407F7F0000DC
:100220001F3F60603F1F00007F7F3018307F7F00DE
:1002300063771C081C776300074F78784F0700002E
:100240006773594D47637100007F7F414100000093
:100250000103060C183060000041417F7F00000060
:10026000080C0603060C0800808080808080808057
:100270000000030704000000207454543C78400040
:10028000413F7F44447C3800387C44446C28000063
:10029000307848493F7F4000387C54545C18000057
:1002A000487E7F490302000098BCA4A4F87C0400A7
:1002B000417F7F08047C780000447D7D4000000081
:1002C00040C484FD7D000000417F7F10386C4400F5
:1002D00000417F7F400000007C7C0C180C7C780083
:1002E0007C7C04047C780000387C44447C3800002A
:1002F00084FCF8A4243C1800183C24A4F8FC8400D6
:10030000447C78441C180000485C54547424000059
:1003100000043E7F442400003C7C40403C7C400084
:100320001C3C60603C1C00003C7C6030607C3C00FD
:10033000446C3810386C44009CBCA0A0FC7C0000CD
:100340004C64745C4C64000008083E774141000036
:1003500000000077770000004141773E0808000068
:10036000020301030203010011241FBECFEFD4E0FA
:10037000DEBFCDBF12E0A0E0B1E0E4EFF4E102C0E7
:1003800005900D92AC30B107D9F722E0ACE0B2E0B5
:1003900001C01D92A631B207E1F70E9418030C9428
:1003A000780A0C9400000E9441054FEF60E680E659
:1003B0000E941D054FEF60E680E70E941D0540E0AA
:1003C00060EE8FE00C941D05EF92FF920F931F9348
:1003D000CF93DF93EC01F62E8F2D0E94EF0483FD67
:1003E000FBCF6881798183E0769567958A95E1F7FF
:1003F00081E08F0D0E94FE0468816295660F607E29
:1004000082E08F0D0E94FE046A816F7085E08F0D7F
:100410000E94FE0400E010E096E0E92EEF0C2A8135
:1004200030E0021713075CF4FE01E00FF11F638157
:100430008E2D800F0E94FE040F5F1F4FF0CF8F2D77
:1004400082958F708258DF91CF911F910F91FF900D
:10045000EF900C943C0580B38CE20E94EF04982F3F
:1004600080FF07C04FEF61E08CE20E941D0580E62F
:100470000895827091FF06C04FEF62E08CE20E9407
:100480001D0580E708956F927F928F929F92AF92A1
:10049000BF92CF92DF92EF92FF920F931F93CF9371
:1004A000DF93CDB7DEB72B970FB6F894DEBF0FBE44
:1004B000CDBF6C010E942B02782E81E0870D0E9437
:1004C000EF04E82E82E0870D0E94EF048295869566
:1004D000877098E0E99E70011124E82A85E0870D75
:1004E0000E94EF048F70682E5E01E4E0AE0EB11C36
:1004F00000E010E0882E912CF6E07F0E081519051B
:1005000054F4872D800F0E94EF04F50181935F0161
:100510000F5F1F4FF3CF40E061E08CE20E941D05AA
:10052000FA82E9826B828BE0FE013196D60101905E
:100530000D928A95E1F7C6012B960FB6F894DEBFAF
:100540000FBECDBFDF91CF911F910F91FF90EF9024
:10055000DF90CF90BF90AF909F908F907F906F90E3
:100560000895EF92FF920F931F93CF93DF93CDB730
:10057000DEB72B970FB6F894DEBF0FBECDBFDE01FE
:100580001496F901042F10E07F01E21AF30AE01635
:10059000F1061CF451915D93F7CF7A8369834B8305
:1005A0002BE0FE013196DC0101900D922A95E1F7D6
:1005B0002B960FB6F894DEBF0FBECDBFDF91CF9163
:1005C0001F910F91FF90EF900895CF93DF93CDB7D8
:1005D000DEB767970FB6F894DEBF0FBECDBF288B8E
:1005E000398B4A8B5B8B6C8B7D8B8E8B9F8B888939
:1005F00099898C878A899B898D878E898E878F8739
:100600009E01245F3F4F44E065E570E0CE01019616
:100610000E94B10260E3CE0101960E94E401679658
:100620000FB6F894DEBF0FBECDBFDF91CF91089516
:10063000CF93DF93CDB7DEB7A1970FB6F894DEBFA7
:100640000FBECDBF81E090E09D8B8C8B8FE190E061
:100650000E94E2056FEE75E08BEE95E00E941A07AE
:100660008EE091E00E9479070E94DE058EE191E024
:100670000E947907CE010C960E94C6048EE291E09A
:100680000E9479070E948B050E94D3018DE391E0BF
:100690000E9479070E94DE030E943E048BE0F82E40
:1006A00001E511E0CE010C960E94D1042C853D8518
:1006B0004E855F85688979898A899B890E94E502D0
:1006C0000E942B02882369F0CE0147960E944302C4
:1006D000FE017796DE0111968F2D01900D928A957D
:1006E000E1F70E94EB049C0141E067E770E0CE0176
:1006F00047960E94B102FE017796DE0111968F2D7A
:1007000001900D928A95E1F760E3CE0101960E9477
:10071000E4010E94E1048E8B9E012A5E3F4F41E07E
:1007200068E870E0CE0147960E94B102FE0177961C
:10073000DE0111968F2D01900D928A95E1F78E8939
:100740001F928F931F930F930E94650760E3CE0162
:1007500001960E94E4010F900F900F900F90A2CF8E
:10076000CF92DF92EF92FF920F931F93CF93DF937D
:100770001F92CDB7DEB78C017B0189E090E0498301
:100780000E94F3056C01FC011683058349814083B7
:10079000F086E782F9E04F9FC00111240E94F30523
:1007A000F60192838183C6010F90DF91CF911F9153
:1007B0000F91FF90EF90DF90CF900895EF92FF920E
:1007C0000F931F93CF93DF9342E060E070E08DE5DD
:1007D00091E00E94B003EC0141E060E070E087E648
:1007E00091E00E94B0038C0141E060E070E086E798
:1007F00091E00E94B0037C0140E06AEB75E084E880
:1008000091E00E94B003E981FA8111830083E981BC
:10081000FA81F382E282D8011196ED91FC91129750
:10082000918380831496DC93CE931397F701D4833E
:10083000C383DC0112961C921E921197CE01DF91A8
:10084000CF911F910F91FF90EF900895CF93C82FF4
:1008500080E090E00E94660580E20E94520580E000
:1008600090E00E94660580EB8C0F0E9445050E9477
:10087000480588E090E0CF910C946605EF92FF92D6
:100880000F931F93CF93DF93EC010E947D0580E0CF
:1008900090E00E9466058E818F938D818F938FE803
:1008A00091E09F938F930E94650760E070E08D81D7
:1008B0009E810E946E050F900F900F900F90E12C7B
:1008C000F12C00E010E0888190E008171907B4F4DB
:1008D0008AE090E00E9466050F5F1F4FE981FA8170
:1008E000EE0DFF1D0190F081E02DB801858196810C
:1008F0000E946E0582E0E80EF11CE5CF81E090E0F9
:10090000DF91CF911F910F91FF90EF900C942604EF
:1009100084E08093001482E68A95F1F700008091CC
:100920000014089585E08093001482E68A95F1F71B
:100930000000809100140895CF93DF93EC010E9492
:100940008804282F30E03D832C831F928F9383EF00
:1009500091E09F938F930E9465070E949204282F35
:1009600030E03F832E831F928F938FEF91E09F9310
:100970008F930E9465078DB79EB708960FB6F894BF
:100980009EBF0FBE8DBFDF91CF9108950E949C0442
:1009900087B3887F87BB88B3876088BB8A98929A21
:1009A0000895CF93DF93EC010E94880490E099832F
:1009B00088830E94920490E09B838A83DF91CF9189
:1009C000089587E08093001481E48A95F1F700C0D0
:1009D00080910014089586B3817090E00895CF93BC
:1009E000C82FC49883E00E94D9058C2F0E94D90596
:1009F00080E00E94D905C49ACF9108951F93CF93A8
:100A0000DF931F92CDB7DEB7182FC49882E06983B9
:100A10000E94D905812F0E94D9056981862F0E94E5
:100A2000D905C49A0F90DF91CF911F910895C49872
:100A300080EC0E94D905C49A08951F93CF93DF9349
:100A400000D0CDB7DEB7182FC49885E04A836983FC
:100A50000E94D905812F0E94D9056981862F0E94A5
:100A6000D9054A81842F0E94D905C49A0F900F900E
:100A7000DF91CF911F910895C4980E94D905C49A1F
:100A800008950E94D3050C941705809300100895D3
:100A9000E6E0F1E081918093001281E0EE30F8070A
:100AA000C9F7089528E0829FC001112420E030E0BA
:100AB00080599040FC01E20FF31FE491E093001293
:100AC0002F5F3F4F28303105A9F70895E0E0F0E1AE
:100AD00091E2908380838FEF80830895CF93DF939B
:100AE000605560930010EC018991882319F00E94F1
:100AF0005205FACFDF91CF91089520EB209300109B
:100B000080E890E01092001201970097D9F72F5FCC
:100B1000283BA1F70895E0E0F0E18EEA808381EAC6
:100B200080838AED808382E1808388EC808388EAF9
:100B300080838FE3808385ED808380E8808381E8F4
:100B4000808380E5808389ED808381E2808380E2F9
:100B5000808382E080838BED808380E380838DEAD5
:100B60008083108284EA808386EA80838FEA808390
:100B70000C947D0586EA809300102FEF8FE791E0BB
:100B8000215080409040E1F700C000C087EA809388
:100B900000102FEF8FE791E0215080409040E1F767
:100BA00000C000C0089580EB87BBBE9881E58DB979
:100BB00008958FB9779BFECF8FB1089585B7806870
:100BC00085BF089590BD89B98AB188618AB980B519
:100BD000866880BD08955D9BFECF8CB908955F9BAC
:100BE000FECF8CB10895CF93DF938230910510F43E
:100BF00082E090E0E0910E02F0910F0220E030E000
:100C0000A0E0B0E0309739F1408151814817590791
:100C1000B8F04817590771F482819381109729F031
:100C200013969C938E9312972CC090930F028093EF
:100C30000E0227C02115310531F04217530718F075
:100C4000A901DB0101C0EF019A01BD01DF010280B2
:100C5000F381E02DD7CF21153105F9F0281B390B91
:100C60002430310580F48A819B816115710521F062
:100C7000FB019383828304C090930F0280930E0242
:100C8000FE01329644C0FE01E20FF31F819391935F
:100C900022503109398328833AC020910C023091C7
:100CA0000D02232B41F42091020130910301309376
:100CB0000D0220930C0220910001309101012115B9
:100CC000310541F42DB73EB7409104015091050123
:100CD000241B350BE0910C02F0910D02E217F30793
:100CE000A0F42E1B3F0B2817390778F0AC014E5F9C
:100CF0005F4F2417350748F04E0F5F1F50930D02CA
:100D000040930C028193919302C0E0E0F0E0CF01A8
:100D1000DF91CF910895CF93DF93009709F487C0B7
:100D2000FC01329713821282C0910E02D0910F0201
:100D3000209781F420813181280F391F80910C0286
:100D400090910D028217930779F5F0930D02E093CD
:100D50000C026DC0DE0120E030E0AE17BF0750F49A
:100D600012964D915C9113979D014115510509F122
:100D7000DA01F3CFB383A28340815181840F951FA1
:100D80008A179B0771F48D919C911197840F951F81
:100D900002969183808312968D919C9113979383F1
:100DA00082832115310529F4F0930F02E0930E029E
:100DB0003EC0D9011396FC93EE9312974D915D912D
:100DC000A40FB51FEA17FB0779F480819181840F86
:100DD000951F0296D90111969C938E9382819381DF
:100DE00013969C938E931297E0E0F0E08A819B81AA
:100DF000009719F0FE01EC01F9CFCE01029628818F
:100E00003981820F931F20910C0230910D02281717
:100E1000390769F4309729F410920F0210920E02EC
:100E200002C013821282D0930D02C0930C02DF9194
:100E3000CF9108950F931F93CF93DF93EC018B0114
:100E4000009731F46115710519F480E090E038C025
:100E50006EE070E081E090E00E947809FC0100976C
:100E6000A1F380E883830115110571F013870287D0
:100E700081E883838091100290911102892B21F4E3
:100E8000F0931102E09310022097C9F0D187C08738
:100E90008381826083838091120290911302892B57
:100EA00071F4F0931302E093120280911402909176
:100EB0001502892B21F4F0931502E0931402CF015F
:100EC000DF91CF911F910F910895A0E0B0E0EBE684
:100ED000F7E00C94510AFE01359661917191AF01D2
:100EE00080911202909113020E94A607E2E00C94F6
:100EF0006D0A0F931F93CF93DF93E0911202F0914D
:100F00001302238121FF1BC0EC0100E010E0899156
:100F10006091120270911302DB011896ED91FC9121
:100F20001997882331F00995892B89F30FEF1FEF6B
:100F3000EECF8AE00995892B11F4C80102C08FEF2A
:100F40009FEFDF91CF911F910F910895ACE0B0E03A
:100F5000ECEAF7E00C94410A7C016B018A01FC0188
:100F600017821682838181FFBDC1CE0101964C019B
:100F7000F7019381F60193FD859193FF81916F01B4
:100F8000882309F4ABC1853239F493FD859193FF31
:100F900081916F01853229F4B70190E00E94B10977
:100FA000E7CF512C312C20E02032A0F48B3269F0B5
:100FB00030F4803259F0833269F420612CC08D32D4
:100FC00039F0803339F4216026C02260246023C0C8
:100FD000286021C027FD27C030ED380F3A3078F463
:100FE00026FF06C0FAE05F9E300D1124532E13C079
:100FF0008AE0389E300D1124332E20620CC08E32D0
:1010000021F426FD6BC1206406C08C3611F42068E3
:1010100002C0883641F4F60193FD859193FF8191DA
:101020006F018111C1CF982F9F7D9554933028F483
:101030000C5F1F4FFFE3F9830DC0833631F0833718
:1010400071F0833509F05BC022C0F801808189838B
:101050000E5F1F4F44244394512C540115C0380196
:10106000F2E06F0E711CF801A080B18026FF03C072
:10107000652D70E002C06FEF7FEFC5012C870E94E5
:10108000A6092C0183012C852F77222E17C0380149
:10109000F2E06F0E711CF801A080B18026FF03C042
:1010A000652D70E002C06FEF7FEFC5012C870E94B5
:1010B00094092C012C852068222E830123FC1BC05F
:1010C000832D90E048165906B0F4B70180E290E015
:1010D0000E94B1093A94F4CFF50127FC859127FECF
:1010E00081915F01B70190E00E94B10931103A94FB
:1010F000F1E04F1A51084114510471F7E5C08436EC
:1011000011F0893639F5F80127FF07C06081718138
:10111000828193810C5F1F4F08C060817181882795
:1011200077FD8095982F0E5F1F4F2F76B22E97FF79
:1011300009C090958095709561957F4F8F4F9F4F17
:101140002068B22E2AE030E0A4010E94E309A82E14
:10115000A81844C0853729F42F7EB22E2AE030E04B
:1011600025C0F22FF97FBF2E8F36C1F018F48835D5
:1011700079F0B4C0803719F0883721F0AFC02F2F35
:101180002061B22EB4FE0DC08B2D8460B82E09C034
:1011900024FF0AC09F2F9660B92E06C028E030E0D9
:1011A00005C020E130E002C020E132E0F801B7FEE6
:1011B00007C060817181828193810C5F1F4F06C0DF
:1011C0006081718180E090E00E5F1F4FA4010E945A
:1011D000E309A82EA818FB2DFF77BF2EB6FE0BC083
:1011E0002B2D2E7FA51450F4B4FE0AC0B2FC08C00B
:1011F0002B2D2E7E05C07A2C2B2D03C07A2C01C0FE
:10120000752C24FF0DC0FE01EA0DF11D8081803395
:1012100011F4297E09C022FF06C07394739404C0A0
:10122000822F867809F0739423FD13C020FF06C037
:101230005A2C731418F4530C5718732C731468F445
:10124000B70180E290E02C870E94B10973942C854D
:10125000F5CF731410F4371801C0312C24FF12C0DD
:10126000B70180E390E02C870E94B1092C8522FF12
:1012700017C021FF03C088E590E002C088E790E036
:10128000B7010CC0822F867859F021FD02C080E2A0
:1012900001C08BE227FD8DE2B70190E00E94B10909
:1012A000A51438F4B70180E390E00E94B1095A9484
:1012B000F7CFAA94F401EA0DF11D8081B70190E007
:1012C0000E94B109A110F5CF332009F451CEB70126
:1012D00080E290E00E94B1093A94F6CFF70186814E
:1012E000978102C08FEF9FEF2C96E2E10C945D0A8C
:1012F0000F931F93CF93DF93869F8001879F100DDD
:10130000969F100D1124C8010E94F305EC0100976F
:1013100029F0A80160E070E00E949F09CE01DF91F2
:10132000CF911F910F910895FC010590615070407D
:101330000110D8F7809590958E0F9F1F0895DC01BE
:1013400001C06D9341505040E0F70895FC01615099
:10135000704001900110D8F7809590958E0F9F1FD7
:1013600008950F931F93CF93DF93182F092FEB014D
:101370008B8181FD03C08FEF9FEF20C082FF10C0E3
:101380004E815F812C813D81421753077CF4E881B7
:10139000F9819F012F5F3F4F39832883108306C057
:1013A000E885F985812F0995892B29F72E813F81C1
:1013B0002F5F3F4F3F832E83812F902FDF91CF915F
:1013C0001F910F910895FA01AA27283051F1203179
:1013D00081F1E8946F936E7F6E5F7F4F8F4F9F4FC9
:1013E000AF4FB1E03ED0B4E03CD0670F781F891F0B
:1013F0009A1FA11D680F791F8A1F911DA11D6A0FD9
:10140000711D811D911DA11D20D009F468943F918B
:101410002AE0269F11243019305D3193DEF6CF018A
:101420000895462F4770405D4193B3E00FD0C9F750
:10143000F6CF462F4F70405D4A3318F0495D31FDBD
:101440004052419302D0A9F7EACFB4E0A695979510
:10145000879577956795BA95C9F7009761057105E6
:1014600008959B01AC010A2E069457954795379530
:101470002795BA95C9F7620F731F841F951FA01D8A
:1014800008952F923F924F925F926F927F928F9228
:101490009F92AF92BF92CF92DF92EF92FF920F9303
:1014A0001F93CF93DF93CDB7DEB7CA1BDB0B0FB60D
:1014B000F894DEBF0FBECDBF09942A8839884888CA
:1014C0005F846E847D848C849B84AA84B984C88460
:1014D000DF80EE80FD800C811B81AA81B981CE0F57
:1014E000D11D0FB6F894DEBF0FBECDBFED0108953C
:0414F000F894FFCF9E
:1014F400000016022000C35C2A6F6F2A5CC35541AA
:10150400525420736574757020646F6E6500535275
:10151400414D20736574757020646F6E65004A4F89
:101524005920736574757020646F6E6500496E6927
:101534007469616C697A6174696F6E20646F6E6539
:1015440000536C696465723A2025640A004D616930
:101554006E206D656E750053637265656E206F70E5
:1015640074696F6E73004F74686572206F7074696C
:101574006F6E73005061727479206D6F64650054EE
:1015840069746C653A2025730A006361736520559C
:101594005000496E20646F776E2E0053656C65634E
:1015A4007420706F733A2025640A004F7574206F9D
:1015B4006620646F776E0063617365205249474803
:1015C40054005375626D656E7520666F756E642187
:1015D40000414354494F4E210063617365204C45DB
:1015E40046540058207A65726F3A2025640A0059DF
:0C15F400207A65726F3A2025640A00001E
:00000001FF
