:100000000C94B4010C94D1010C94D1010C94D10145
:100010000C94D1010C94D1010C94D1010C94B00634
:100020000C94D1010C94D1010C94D1010C94D10108
:100030000C94D1010C94D1010C94D1010C94D101F8
:100040000C94D1010C94D1010C94D1010C94D101E8
:100050000C94D1010C94D1010C94D1010C94D101D8
:100060000C94D1010C94D1010C94D1010C94D101C8
:10007000000000000000000000065F5F06000000B6
:100080000007070007070000147F7F147F7F14001C
:10009000242E6B6B3A120000466630180C66620024
:1000A000307A4F5D377A48000407030000000000F3
:1000B000001C3E63410000000041633E1C00000044
:1000C000082A3E1C1C3E2A0808083E3E080800007C
:1000D00000A0E06000000000080808080808000010
:1000E00000006060000000006030180C0603010092
:1000F0003E7F594D7F3E000042427F7F40400000DE
:10010000627359496F660000226349497F360000D7
:10011000181C16137F7F1000276745457D390000A6
:100120003C7E4B4979300000036371190F070000D2
:10013000367F49497F360000064F49693F1E00005F
:1001400000006C6C0000000000A0EC6C00000000DF
:10015000081C366341000000141414141414000029
:10016000004163361C080000020351590F060000CD
:100170003E7F415D5D1F1E007C7E13137E7C000070
:10018000417F7F49497F36001C3E63414163220025
:10019000417F7F41637F1C00417F7F495D41630058
:1001A000417F7F491D0103001C3E63415173720072
:1001B0007F7F08087F7F000000417F7F41000000B3
:1001C000307040417F3F0100417F7F081C77630012
:1001D000417F7F41406070007F7F060C067F7F007B
:1001E0007F7F060C187F7F001C3E6341633E1C002E
:1001F000417F7F49090F06001E3F21717F5E00008D
:10020000417F7F19396F460026674D597B320000C8
:1002100003417F7F410300007F7F40407F7F0000DC
:100220001F3F60603F1F00007F7F3018307F7F00DE
:1002300063771C081C776300074F78784F0700002E
:100240006773594D47637100007F7F414100000093
:100250000103060C183060000041417F7F00000060
:10026000080C0603060C0800808080808080808057
:100270000000030704000000207454543C78400040
:10028000413F7F44447C3800387C44446C28000063
:10029000307848493F7F4000387C54545C18000057
:1002A000487E7F490302000098BCA4A4F87C0400A7
:1002B000417F7F08047C780000447D7D4000000081
:1002C00040C484FD7D000000417F7F10386C4400F5
:1002D00000417F7F400000007C7C0C180C7C780083
:1002E0007C7C04047C780000387C44447C3800002A
:1002F00084FCF8A4243C1800183C24A4F8FC8400D6
:10030000447C78441C180000485C54547424000059
:1003100000043E7F442400003C7C40403C7C400084
:100320001C3C60603C1C00003C7C6030607C3C00FD
:10033000446C3810386C44009CBCA0A0FC7C0000CD
:100340004C64745C4C64000008083E774141000036
:1003500000000077770000004141773E0808000068
:10036000020301030203010011241FBECFEFD4E0FA
:10037000DEBFCDBF12E0A0E0B1E0EEE8F3E202C0E4
:1003800005900D92A43EB107D9F723E0A4EEB2E0A8
:1003900001C01D92AC30B207E1F70E941B090C941A
:1003A000C5110C9400000E94E8034FEF64E680E65C
:1003B0000E94C4034FEF64E680E70E94C40340E05C
:1003C00060EE8FE00C94C403EF92FF920F931F93A3
:1003D000CF93DF93EC01F62E8F2D0E94960383FDC1
:1003E000FBCF6881798183E0769567958A95E1F7FF
:1003F00081E08F0D0E94A50368816295660F607E83
:1004000082E08F0D0E94A5036A816F7085E08F0DD9
:100410000E94A50300E010E096E0E92EEF0C2A818F
:1004200030E0021713075CF4FE01E00FF11F638157
:100430008E2D800F0E94A5030F5F1F4FF0CF8F2DD1
:1004400082958F708258DF91CF911F910F91FF900D
:10045000EF900C94E30380B38CE20E949603982FF4
:1004600080FF07C04FEF61E08CE20E94C40380E68A
:100470000895827091FF06C04FEF62E08CE20E9407
:10048000C40380E708956F927F928F929F92AF92FC
:10049000BF92CF92DF92EF92FF920F931F93CF9371
:1004A000DF93CDB7DEB72B970FB6F894DEBF0FBE44
:1004B000CDBF6C010E942B02782E81E0870D0E9437
:1004C0009603E82E82E0870D0E949603829586951A
:1004D000877098E0E99E70011124E82A85E0870D75
:1004E0000E9496038F70682E5E01E4E0AE0EB11C90
:1004F00000E010E0882E912CF6E07F0E081519051B
:1005000054F4872D800F0E949603F50181935F01BB
:100510000F5F1F4FF3CF40E061E08CE20E94C40305
:10052000FA82E9826B828BE0FE013196D60101905E
:100530000D928A95E1F7C6012B960FB6F894DEBFAF
:100540000FBECDBFDF91CF911F910F91FF90EF9024
:10055000DF90CF90BF90AF909F908F907F906F90E3
:100560000895EF92FF920F931F93CF93DF93CDB730
:10057000DEB72B970FB6F894DEBF0FBECDBFDE01FE
:100580001496F901042F10E07F01E21AF30AE01635
:10059000F1061CF451915D93F7CF7A8369834B8305
:1005A0002BE0FE013196DC0101900D922A95E1F7D6
:1005B0002B960FB6F894DEBF0FBECDBFDF91CF9163
:1005C0001F910F91FF90EF900895CF93DF93CDB7D8
:1005D000DEB764970FB6F894DEBF0FBECDBF84E1DF
:1005E00091E00E94C60E0E941B042C873D874E8717
:1005F0005F87688B798B8A8B9B8B8C859D858C8B99
:100600009E012C5E3F4F41E065E570E0CE01019612
:100610000E94B10260E3CE0101960E94E40164965B
:100620000FB6F894DEBF0FBECDBFDF91CF91089516
:10063000CF93DF93CDB7DEB72C970FB6F894DEBF1C
:100640000FBECDBF0E9481058C879E01245F3F4F66
:1006500041E068E870E0CE0101960E94B10260E3DB
:10066000CE0101960E94E4012C960FB6F894DEBFED
:100670000FBECDBFDF91CF910895CF93DF93CDB75C
:10068000DEB72C970FB6F894DEBF0FBECDBF0E9429
:100690008B058C879E01245F3F4F41E067E770E048
:1006A000CE0101960E94B10260E3CE0101960E9444
:1006B000E4012C960FB6F894DEBF0FBECDBFDF91DC
:1006C000CF910895EF920F93CF93DF93CDB7DEB71D
:1006D00061970FB6F894DEBF0FBECDBF8C876D87D4
:1006E0004E872F87088BE98A9E01245F3F4F46E0A3
:1006F00069E970E0CE0101960E94B10284E291E0C6
:100700009F938F930E94B20E60E3CE0101960E94E8
:10071000E4010F900F9061960FB6F894DEBF0FBE04
:10072000CDBFDF91CF910F91EF900895CF93C82F58
:10073000C49883E00E94F2038C2F0E94F20380E0B1
:100740000E94F203C49ACF9108951F93CF93DF9331
:100750001F92CDB7DEB7182FC49882E069830E943C
:10076000F203812F0E94F2036981862F0E94F20317
:10077000C49A0F90DF91CF911F910895C49880EC97
:100780000E94F203C49A08951F93CF93DF9300D081
:10079000CDB7DEB7182FC49885E04A8369830E94DD
:1007A000F203812F0E94F2036981862F0E94F203D7
:1007B0004A81842F0E94F203C49A0F900F90DF9118
:1007C000CF911F910895C4980E94F203C49A08958E
:1007D0000E94EC030C94BE0380EB87BBBE9881E5BE
:1007E0008DB908958FB9779BFECF8FB1089590BDD5
:1007F00089B98AB188618AB980B5866880BD089553
:100800005D9BFECF8CB908955F9BFECF8CB10895A0
:10081000E199FECF9FBB8EBB6DBBE29AE19A089532
:10082000E199FECF9FBB8EBBE09A8DB3089585B74B
:10083000806885BF0895CF93DF93CDB7DEB7289743
:100840000FB6F894DEBF0FBECDBF88E0E4EEF2E055
:10085000DE01119601900D928A95E1F729813A8186
:100860004B815C816D817E818F81988528960FB642
:10087000F894DEBF0FBECDBFDF91CF910895CF9327
:10088000DF93CDB7DEB760970FB6F894DEBF0FBE2B
:10089000CDBF9A8789877C876B8750E05E874D87BD
:1008A00030E0388B2F8788E0FE013996DE01119603
:1008B00001900D928A95E1F729813A814B815C8103
:1008C0006D817E818F81988560960FB6F894DEBF2A
:1008D0000FBECDBFDF91CF91089584E080930014C7
:1008E00082E68A95F1F7000080910014089585E072
:1008F0008093001482E68A95F1F70000809100143D
:1009000008950E946D0490E09093E9028093E802BC
:100910000E94770490E09093EB028093EA0208959E
:100920000E94810487B3887F87BB88B3876088BBB8
:100930008A98929A08950E946D0490E09093E5023F
:100940008093E4020E94770490E09093E702809302
:10095000E60208954F925F926F927F928F929F92DC
:10096000AF92BF92CF92DF92EF92FF920F931F93BD
:10097000CF93DF93CDB7DEB728970FB6F894DEBFDD
:100980000FBECDBF0E949B04E090E402F090E50210
:100990000091E8021091E9026091E6027091E7028D
:1009A000A090EA02B090EB026A197B09882777FDD4
:1009B0008095982F0E94510C20E030E048EC52E4E2
:1009C0000E94DD0C2B013C01B501882777FD809545
:1009D000982F0E94510C9B01AC0160E070E08FE702
:1009E00093E40E94510B9B01AC01C301B2010E9430
:1009F000B60B0E941E0C862E992487FC9094B7019A
:100A0000601B710B882777FD8095982F0E94510CF1
:100A100020E030E048EC52E40E94DD0C6B017C01E8
:100A2000B801882777FD8095982F0E94510C9B0173
:100A3000AC0160E070E08FE793E40E94510B9B01F2
:100A4000AC01C701B6010E94B60B0E941E0C862F96
:100A50002A2D402FB401992787FD90950E943F04CD
:100A600028960FB6F894DEBF0FBECDBFDF91CF91B1
:100A70001F910F91FF90EF90DF90CF90BF90AF90BC
:100A80009F908F907F906F905F904F900895CF933D
:100A9000DF93CDB7DEB728970FB6F894DEBF0FBE51
:100AA000CDBF0E94AA0429833A834B835C836D8364
:100AB0007E838F83988789819A818A3591058CF40A
:100AC00089819A81873A9F4F74F08B819C818A3506
:100AD00091055CF48B819C81873A9F4F44F482E0BE
:100AE00007C084E005C083E003C081E001C080E06E
:100AF00028960FB6F894DEBF0FBECDBFDF91CF9121
:100B0000089587E08093001481E48A95F1F700C08E
:100B100080910014089586B3817090E0089528E0D4
:100B2000829FC001112420E030E080599040FC01F8
:100B3000E20FF31FE491E09300122F5F3F4F283044
:100B40003105A9F70895E6E5F1E08191809300125F
:100B500081E0EE35F807C9F70895E0E0F0E191E2B1
:100B6000908380838FEF80830895CF93DF936055C8
:100B700060930010EC018991882319F00E948F0581
:100B8000FACFDF91CF91089580E090E00E94AD050B
:100B900020EB2093001080E890E010920012019763
:100BA0000097D9F72F5F283BA1F70895E0E0F0E127
:100BB0008EEA808381EA80838AED808382E180836C
:100BC00088EC808388EA80838FE3808385ED80834F
:100BD00080E8808381E8808380E5808389ED80835D
:100BE00081E2808380E2808382E080838BED80835A
:100BF00080E380838DEA8083108284EA808386EAA2
:100C000080838FEA80830E94C4051092ED021092C7
:100C1000EC020895CF93C82FCB010E94AD05C055BB
:100C2000C0930010CF9108958091EC029091ED0255
:100C3000892B41F086EA809300101092ED02109209
:100C4000EC02089587EA8093001081E090E0909391
:100C5000ED028093EC020895CF93DF93CDB7DEB71A
:100C6000FE01359661917191AF0186E091E00E949D
:100C7000F30EDF91CF910895CF930E94C40580E0D9
:100C800090E00E94AD0582EB8093001080E391E03C
:100C90009F938F930E942C0680E090E00E94AD0508
:100CA00083EB809300108DE391E09F938F930E94DC
:100CB0002C0680E090E00E94AD0584EB809300104C
:100CC00087E491E09F938F930E942C060F900F90E2
:100CD0000F900F900F900F90C1E80E94470583304E
:100CE00039F0C09300100E94810580930010F5CF69
:100CF000CF910895E0EFF2E0108212821182138208
:100D00000895EBE8F0E080818E7F808380818D7F85
:100D10008083EAE8F0E080818860808380818F7E34
:100D200080838CED91E09093870080938600EDE7BF
:100D3000F0E080818061808388B7886088BF789484
:100D40000895EAE8F0E080818560808380818D7F6E
:100D500080830895EAE8F0E08081887F80830895A9
:100D60001F920F920FB60F9211242F933F934F9320
:100D70005F936F937F938F939F93AF93BF93EF9303
:100D8000FF93CF93DF93CDB7DEB72B97DEBFCDBFF9
:100D900020E030E040E060E070E0CE0101960E948B
:100DA000B1020E942B02882321F0CE0101960E94FD
:100DB000430289819A818636910531F48C8190E0D5
:100DC0009093EF028093EE028091EE029091EF02F9
:100DD000892B11F40E9410070E9414060E94E5025C
:100DE0000E9418030E943D032B960FB6F894DEBFB5
:100DF0000FBECDBFDF91CF91FF91EF91BF91AF912A
:100E00009F918F917F916F915F914F913F912F9122
:100E10000F900FBE0F901F9018958093F6020895C3
:100E20008091F5028F5F8093F5029091F6029817FA
:100E3000D8F48091F4028F5F8093F4021092F5024F
:100E400060E170E084E090E00E940A068091F40284
:100E50001F928F938EE591E09F938F930E942C06B3
:100E60000F900F900F900F9008951092F40210922F
:100E7000F50208951092EF021092EE020E94A10670
:100E80000E9435070C94C4050E94C40560E070E020
:100E900080E090E00E940A0688E691E09F938F939D
:100EA0000E942C0660E070E081E090E00E940A065B
:100EB00088E791E09F938F930E942C0660E070E09A
:100EC00082E090E00E940A0689E891E09F938F9368
:100ED0000E942C0660E070E084E090E00E940A0628
:100EE0008AE991E09F938F930E942C0660E070E066
:100EF00085E090E00E940A0689EA91E09F938F9333
:100F00000E942C0660E070E086E090E00E940A06F5
:100F100089EB91E09F938F930E942C0660E070E034
:100F200087E090E00E940A0684EC91E09F938F9303
:100F30000E942C068DB79EB70E960FB6F8949EBFF2
:100F40000FBE8DBF0895CF93DF93EC0168E070E092
:100F500081E090E00E940A0622ED31E03F932F935A
:100F60000E942C0660E070E082E090E00E940A0699
:100F700021EE31E03F932F930E942C0660E070E059
:100F800083E090E00E940A06DF93CF938DEE91E01C
:100F90009F938F930E942C068DB79EB708960FB62D
:100FA000F8949EBF0FBE8DBFDF91CF9108950E9430
:100FB000AA060E94C4058091F4020E947108882349
:100FC00069F099270E94A3072FEF8FEF9AE4215031
:100FD00080409040E1F700C0000017C068E070E07A
:100FE00082E090E00E940A0687EF91E09F938F9342
:100FF0000E94B20E2FEF8FEF9AE421508040904074
:10100000E1F700C000000F900F900C94CC080E94F4
:1010100044070E948B05892B29F480E18A95F1F71A
:1010200000C0F7CF0E943A078091EE029091EF0244
:10103000892B29F480E18A95F1F700C0F5CF83E090
:1010400092E09F938F930E942C060F900F900C9428
:10105000D707EF920F9383E28093F602E12C00E032
:1010600021E041E061E087E00E9462030F91EF9090
:101070000895EF920F9386E48093F602E12C00E04E
:1010800021E042E061E081E00E9462030F91EF9075
:101090000895EF920F938AE08093F602EE24E39492
:1010A00001E022E041E062E081E00E9462030F91F2
:1010B000EF9008950F931F93CF93DF9307EF12E004
:1010C000C0E0D0E0CE010E941004F80181938F01AE
:1010D0002196C730D105B1F7DF91CF911F910F91C4
:1010E0000895BF92CF92DF92EF92FF920F931F93DA
:1010F000CF93DF93B82EE7EFF2E0C0E0D0E081912C
:101100008B1510F58DEFC82E82E0D82E9EEFE92EBC
:1011100092E0F92E06E010E0F60162916F01F7010E
:1011200062937F01C8010E940804015011090C1745
:101130001D0794F7FE01E950FD4FB0826B2DCE01E3
:101140000E940804CE0106C02196C730D105B9F629
:1011500080E090E0DF91CF911F910F91FF90EF9091
:10116000DF90CF90BF9008950F931F93CF93DF939D
:1011700007EF12E0C0E0D0E060E0CE010E9408047A
:10118000F80111928F012196C730D105A9F7DF919F
:10119000CF911F910F910895EF92FF920F931F939C
:1011A000CF93DF930E94C40560E070E080E090E0A0
:1011B0000E940A061F921F928EE092E09F938F93E7
:1011C0000E942C0627EFE22E22E0F22E0F900F90C5
:1011D0000F900F90C0E0D0E00AE112E0219660E1AC
:1011E00070E0CE010E940A06F70181917F011F92F3
:1011F0008F93DF93CF931F930F930E942C060F9032
:101200000F900F900F900F900F90C730D10531F7CE
:101210000E944705833029F0E0E1EA95F1F700C02C
:10122000F7CF0E944C0BDF91CF911F910F91FF9050
:10123000EF900C9492098FE190E00E94F70364E034
:1012400074E080E094E00E94670E82E292E00E94E7
:10125000C60E0E94170482E392E00E94C60E0E940E
:10126000900482E492E00E94C60E0E94D6050E947D
:10127000D3010E9481060E947A060E945A088AE0E1
:101280000E940D0781E592E00E94C60E0E94D409DB
:101290000E94B4080E94D40AFDCFCF92DF92EF9251
:1012A000FF920F931F93CF93DF931F92CDB7DEB7BB
:1012B0008C017B0189E090E049830E94400D6C0124
:1012C000FC011683058349814083F086E782F9E0BB
:1012D0004F9FC00111240E94400DF601928381832B
:1012E000C6010F90DF91CF911F910F91FF90EF906A
:1012F000DF90CF900895CF93DF93EC0180E090E0F2
:101300000E94AD0580E20E948F0560E070E0CE0192
:101310000E940A060E94A30588E090E0DF91CF9129
:101320000C94AD05EF92FF920F931F93CF93DF9331
:101330008C010E94C40580E090E00E94AD0560E051
:1013400070E0D80115968D919C9116970E94B50575
:10135000E12CF12CC0E0D0E0F801808190E0C817CA
:10136000D907C4F48AE090E00E94AD052196D80127
:101370001196ED91FC911297EE0DFF1D0190F081F9
:10138000E02DBE01858196810E94B505B2E0EB0E8D
:10139000F11CE2CF81E090E0DF91CF911F910F919E
:1013A000FF90EF900C947B092F923F924F925F92A7
:1013B0006F927F928F929F92AF92BF92CF92DF9265
:1013C000EF92FF920F931F93CF93DF9300D000D043
:1013D000CDB7DEB744E060E070E085E692E00E94C1
:1013E0004D099C838B8340E067E078E08FE692E0D4
:1013F0000E944D095C0140E06CEC78E08AE792E0E5
:101400000E944D099C0141E060E070E087E892E0B5
:1014100029833A830E944D096C0140E06CE376E039
:1014200086E992E00E944D093C0142E060E070E0F4
:1014300081EA92E00E944D097C0143E060E070E0A7
:101440008EEA92E00E944D098C0140E064EB78E066
:101450008DEB92E00E944D094C0140E069E378E099
:101460008DEC92E00E944D092C0140E069E278E0A9
:1014700084ED92E00E944D091C0140E069E478E0AF
:1014800089ED92E00E944D09AB81BC811196ED91EE
:10149000FC911297B182A0821196ED91FC91129766
:1014A00029813A81338322831196ED91FC91129721
:1014B000D582C4821196ED91FC911297F782E68253
:1014C00014961C921E921397F501128211821482B7
:1014D0001382D6011196ED91FC9112977182608270
:1014E0002B813C8114963C932E931397D301129633
:1014F0001C921E921197F701348323830180F2819D
:10150000E02D11830083D7011196ED91FC91129784
:1015100093828282D8011196ED91FC9112975182AB
:1015200040821196ED91FC9112973382228211969E
:10153000ED91FC9112979583848314963C932E939E
:101540001397F40112821182D20112961C921E92FC
:101550001197F10112821182DC0112961C921E92E7
:10156000119781E090E09093FF028093FE02309308
:10157000010320930003C9010F900F900F900F906B
:10158000DF91CF911F910F91FF90EF90DF90CF905F
:10159000BF90AF909F908F907F906F905F904F9093
:1015A0003F902F900C949209CF93C0E00E94470582
:1015B000882321F00E944705C82FF8CFC230A1F040
:1015C00018F4C13039F066C0C33009F44EC0C430DD
:1015D00009F160C08091FE029091FF028130910577
:1015E00009F458C001970FC08091FE029091FF024C
:1015F000E0910003F0910103208130E028173907C2
:1016000009F448C001969093FF028093FE02CF91A7
:101610000C947B09E0910003F09101038091FE029C
:101620009091FF0281509048880F991F0180F281AC
:10163000E02DE80FF91F80819181DC012C9122239C
:1016400069F090930103809300030E94920981E066
:1016500090E09093FF028093FE021CC0DC0117967D
:10166000ED91FC911897CF910994E0910003F091CE
:10167000010383819481009769F021E030E0309389
:10168000FF022093FE029093010380930003CF9109
:101690000C949209CF9108958091000390910103D9
:1016A00008955058BB27AA270ED04DC13ED130F027
:1016B00043D120F031F49F3F11F41EF433C10EF4F6
:1016C000E095E7FB29C1E92F4FD180F3BA176207F4
:1016D00073078407950718F071F49EF567C10EF43F
:1016E000E0950B2EBA2FA02D0B01B90190010C0132
:1016F000CA01A0011124FF27591B99F0593F50F44A
:10170000503E68F11A16F040A22F232F342F4427A1
:10171000585FF3CF469537952795A795F040539599
:10172000C9F77EF41F16BA0B620B730B840BBAF069
:101730009150A1F0FF0FBB1F661F771F881FC2F7D4
:101740000EC0BA0F621F731F841F48F487957795E8
:101750006795B795F7959E3F08F0B3CF9395880F9F
:1017600008F09927EE0F9795879508950CD0EBC058
:10177000E3D040F0DAD030F021F45F3F19F0CCC074
:10178000511115C1CFC0F0D098F39923C9F3552357
:10179000B1F3951B550BBB27AA2762177307840764
:1017A00038F09F5F5F4F220F331F441FAA1FA9F31A
:1017B00033D00E2E3AF0E0E830D091505040E6950C
:1017C000001CCAF729D0FE2F27D0660F771F881F6D
:1017D000BB1F261737074807AB07B0E809F0BB0B5C
:1017E000802DBF01FF2793585F4F2AF09E3F510580
:1017F00068F092C0DCC05F3FECF3983EDCF3869566
:1018000077956795B795F7959F5FC9F7880F911DF5
:101810009695879597F90895E1E0660F771F881FE1
:10182000BB1F621773078407BA0720F0621B730B94
:10183000840BBA0BEE1F88F7E095089504D06894E6
:10184000B111B5C0089598D088F09F5790F0B92F86
:101850009927B751A0F0D1F0660F771F881F991F05
:101860001AF0BA95C9F712C0B13081F09FD0B1E03B
:1018700008959CC0672F782F8827B85F39F0B93F4B
:10188000CCF3869577956795B395D9F73EF4909507
:101890008095709561957F4F8F4F9F4F0895E89485
:1018A00009C097FB3EF490958095709561957F4FA8
:1018B0008F4F9F4F9923A9F0F92F96E9BB27939556
:1018C000F695879577956795B795F111F8CFFAF466
:1018D000BB0F11F460FF1BC06F5F7F4F8F4F9F4F97
:1018E00016C0882311F096E911C0772321F09EE8F5
:1018F000872F762F05C0662371F096E8862F70E05B
:1019000060E02AF09A95660F771F881FDAF7880F34
:101910009695879597F9089597F99F6780E870E005
:1019200060E008959FEF80EC089500240A94161655
:10193000170618060906089500240A9412161306BD
:10194000140605060895092E0394000C11F488234B
:1019500052F0BB0F40F4BF2B11F460FF04C06F5F67
:101960007F4F8F4F9F4F089557FD9058440F551F3D
:1019700059F05F3F71F04795880F97FB991F61F011
:101980009F3F79F087950895121613061406551F88
:10199000F2CF4695F1DF08C0161617061806991FF4
:1019A000F1CF86957105610508940895E894BB27E9
:1019B00066277727CB0197F908950BD0C4CFB5DF01
:1019C00028F0BADF18F0952309F0A6CFABCF112489
:1019D000EECFCADFA0F3959FD1F3950F50E0551FCE
:1019E000629FF001729FBB27F00DB11D639FAA2774
:1019F000F00DB11DAA1F649F6627B00DA11D661FC3
:101A0000829F2227B00DA11D621F739FB00DA11DE3
:101A1000621F839FA00D611D221F749F3327A00D9D
:101A2000611D231F849F600D211D822F762F6A2F39
:101A300011249F5750408AF0E1F088234AF0EE0FBE
:101A4000FF1FBB1F661F771F881F91505040A9F7CB
:101A50009E3F510570F060CFAACF5F3FECF3983EF8
:101A6000DCF3869577956795B795F795E7959F5F32
:101A7000C1F7FE2B880F911D9695879597F90895CC
:101A8000CF93DF938230910510F482E090E0E091F3
:101A90000403F091050320E030E0A0E0B0E03097CF
:101AA00039F14081518148175907B8F04817590753
:101AB00071F482819381109729F013969C938E93F1
:101AC00012972CC0909305038093040327C021151F
:101AD000310531F04217530718F0A901DB0101C0AD
:101AE000EF019A01BD01DF010280F381E02DD7CF24
:101AF00021153105F9F0281B390B2430310580F40C
:101B00008A819B816115710521F0FB01938382839A
:101B100004C09093050380930403FE01329644C0F1
:101B2000FE01E20FF31F8193919322503109398313
:101B300028833AC02091020330910303232B41F400
:101B4000209102013091030130930303209302039B
:101B500020910001309101012115310541F42DB78B
:101B60003EB74091040150910501241B350BE091D3
:101B70000203F0910303E217F307A0F42E1B3F0BBF
:101B80002817390778F0AC014E5F5F4F24173507EF
:101B900048F04E0F5F1F509303034093020381935D
:101BA000919302C0E0E0F0E0CF01DF91CF91089582
:101BB000CF93DF93009709F487C0FC01329713821B
:101BC0001282C0910403D0910503209781F42081F3
:101BD0003181280F391F80910203909103038217EE
:101BE000930779F5F0930303E09302036DC0DE01E0
:101BF00020E030E0AE17BF0750F412964D915C9193
:101C000013979D014115510509F1DA01F3CFB38313
:101C1000A28340815181840F951F8A179B0771F41D
:101C20008D919C911197840F951F029691838083CB
:101C300012968D919C911397938382832115310580
:101C400029F4F0930503E09304033EC0D9011396F1
:101C5000FC93EE9312974D915D91A40FB51FEA1777
:101C6000FB0779F480819181840F951F0296D90139
:101C700011969C938E938281938113969C938E935D
:101C80001297E0E0F0E08A819B81009719F0FE0155
:101C9000EC01F9CFCE01029628813981820F931F82
:101CA00020910203309103032817390769F4309714
:101CB00029F4109205031092040302C013821282C9
:101CC000D0930303C0930203DF91CF9108950F9344
:101CD0001F93CF93DF93EC018B01009731F46115D3
:101CE000710519F480E090E038C06EE070E081E0AA
:101CF00090E00E94C510FC010097A1F380E8838367
:101D00000115110571F01387028781E883838091A3
:101D1000060390910703892B21F4F0930703E093C6
:101D200006032097C9F0D187C087838182608383AF
:101D30008091080390910903892B71F4F0930903B2
:101D4000E093080380910A0390910B03892B21F4FF
:101D5000F0930B03E0930A03CF01DF91CF911F9122
:101D60000F910895A0E0B0E0E8EBFEE00C949E1126
:101D7000FE01359661917191AF01809108039091B8
:101D800009030E94F30EE2E00C94BA110F931F9323
:101D9000CF93DF93E0910803F0910903238121FFA2
:101DA0001BC0EC0100E010E0899160910803709184
:101DB0000903DB011896ED91FC911997882331F006
:101DC0000995892B89F30FEF1FEFEECF8AE0099574
:101DD000892B11F4C80102C08FEF9FEFDF91CF91E3
:101DE0001F910F910895ACE0B0E0E9EFFEE00C9494
:101DF0008E117C016B018A01FC011782168283819E
:101E000081FFBDC1CE0101964C01F7019381F6011E
:101E100093FD859193FF81916F01882309F4ABC1F4
:101E2000853239F493FD859193FF81916F0185325D
:101E300029F4B70190E00E94FE10E7CF512C312C1D
:101E400020E02032A0F48B3269F030F4803259F077
:101E5000833269F420612CC08D3239F0803339F43B
:101E6000216026C02260246023C0286021C027FD95
:101E700027C030ED380F3A3078F426FF06C0FAE07C
:101E80005F9E300D1124532E13C08AE0389E300D12
:101E90001124332E20620CC08E3221F426FD6BC13A
:101EA000206406C08C3611F4206802C0883641F4E4
:101EB000F60193FD859193FF81916F018111C1CF4F
:101EC000982F9F7D9554933028F40C5F1F4FFFE3AC
:101ED000F9830DC0833631F0833771F0833509F013
:101EE0005BC022C0F801808189830E5F1F4F4424AC
:101EF0004394512C540115C03801F2E06F0E711C4F
:101F0000F801A080B18026FF03C0652D70E002C0FB
:101F10006FEF7FEFC5012C870E94F3102C01830126
:101F20002C852F77222E17C03801F2E06F0E711C1E
:101F3000F801A080B18026FF03C0652D70E002C0CB
:101F40006FEF7FEFC5012C870E94E1102C012C85DB
:101F50002068222E830123FC1BC0832D90E04816AD
:101F60005906B0F4B70180E290E00E94FE103A9466
:101F7000F4CFF50127FC859127FE81915F01B70120
:101F800090E00E94FE1031103A94F1E04F1A51088F
:101F90004114510471F7E5C0843611F0893639F5E2
:101FA000F80127FF07C060817181828193810C5FF6
:101FB0001F4F08C060817181882777FD8095982F19
:101FC0000E5F1F4F2F76B22E97FF09C09095809518
:101FD000709561957F4F8F4F9F4F2068B22E2AE0FA
:101FE00030E0A4010E943011A82EA81844C0853703
:101FF00029F42F7EB22E2AE030E025C0F22FF97F9F
:10200000BF2E8F36C1F018F4883579F0B4C0803710
:1020100019F0883721F0AFC02F2F2061B22EB4FE07
:102020000DC08B2D8460B82E09C024FF0AC09F2FDD
:102030009660B92E06C028E030E005C020E130E00F
:1020400002C020E132E0F801B7FE07C06081718173
:10205000828193810C5F1F4F06C06081718180E097
:1020600090E00E5F1F4FA4010E943011A82EA81807
:10207000FB2DFF77BF2EB6FE0BC02B2D2E7FA51498
:1020800050F4B4FE0AC0B2FC08C02B2D2E7E05C051
:102090007A2C2B2D03C07A2C01C0752C24FF0DC087
:1020A000FE01EA0DF11D8081803311F4297E09C003
:1020B00022FF06C07394739404C0822F867809F0BF
:1020C000739423FD13C020FF06C05A2C731418F418
:1020D000530C5718732C731468F4B70180E290E026
:1020E0002C870E94FE1073942C85F5CF731410F486
:1020F000371801C0312C24FF12C0B70180E390E0F3
:102100002C870E94FE102C8522FF17C021FF03C0E0
:1021100088E590E002C088E790E0B7010CC0822F0C
:10212000867859F021FD02C080E201C08BE227FDD4
:102130008DE2B70190E00E94FE10A51438F4B701BB
:1021400080E390E00E94FE105A94F7CFAA94F40125
:10215000EA0DF11D8081B70190E00E94FE10A110F0
:10216000F5CF332009F451CEB70180E290E00E9410
:10217000FE103A94F6CFF7018681978102C08FEF67
:102180009FEF2C96E2E10C94AA110F931F93CF932B
:10219000DF93869F8001879F100D969F100D11245D
:1021A000C8010E94400DEC01009729F0A80160E0F1
:1021B00070E00E94EC10CE01DF91CF911F910F9142
:1021C0000895FC010590615070400110D8F780958A
:1021D00090958E0F9F1F0895DC0101C06D934150B3
:1021E0005040E0F70895FC016150704001900110EB
:1021F000D8F7809590958E0F9F1F08950F931F938A
:10220000CF93DF93182F092FEB018B8181FD03C042
:102210008FEF9FEF20C082FF10C04E815F812C8125
:102220003D81421753077CF4E881F9819F012F5FBC
:102230003F4F39832883108306C0E885F985812FB5
:102240000995892B29F72E813F812F5F3F4F3F83CF
:102250002E83812F902FDF91CF911F910F910895A1
:10226000FA01AA27283051F1203181F1E8946F93C7
:102270006E7F6E5F7F4F8F4F9F4FAF4FB1E03ED06D
:10228000B4E03CD0670F781F891F9A1FA11D680F0B
:10229000791F8A1F911DA11D6A0F711D811D911D3E
:1022A000A11D20D009F468943F912AE0269F1124B3
:1022B0003019305D3193DEF6CF010895462F477017
:1022C000405D4193B3E00FD0C9F7F6CF462F4F7072
:1022D000405D4A3318F0495D31FD4052419302D0D0
:1022E000A9F7EACFB4E0A695979587957795679576
:1022F000BA95C9F700976105710508959B01AC0176
:102300000A2E06945795479537952795BA95C9F79C
:10231000620F731F841F951FA01D08952F923F9277
:102320004F925F926F927F928F929F92AF92BF92E5
:10233000CF92DF92EF92FF920F931F93CF93DF9391
:10234000CDB7DEB7CA1BDB0B0FB6F894DEBF0FBEEE
:10235000CDBF09942A88398848885F846E847D843B
:102360008C849B84AA84B984C884DF80EE80FD803D
:102370000C811B81AA81B981CE0FD11D0FB6F894B3
:0E238000DEBF0FBECDBFED010895F894FFCF74
:10238E0000000C03200000000002000000008F057A
:10239E000000000053656E64696E67206D6573738F
:1023AE0061676500796F6C6F6D6569737465720036
:1023BE0055736520746865206C65667400736C696E
:1023CE0064657220746F0073657420627269676849
:1023DE00746E65737300C35C2A6F6F2A5CC353639C
:1023EE006F72653A2025640057656C636F6D6520CA
:1023FE00746F207468697300696E746572616374BA
:10240E006976652062616C6C0062756D702065780E
:10241E0070657269656E63652E0050757420796FF4
:10242E0075722062616C6C73006F6E20746865202B
:10243E00736F6C656E6F696400746F206265676997
:10244E006E2E2E0020202E2E676F6F64206C75630B
:10245E006B004E4557204849474853434F5245213C
:10246E000046696E6973686564206173006E756DF0
:10247E0062657220256400596F7520736F2062614A
:10248E00642E0047616D65206C6F7374210048697E
:10249E00676873636F726573210025642E20202593
:1024AE0064005541525420736574757020646F6ECC
:1024BE0065005352414D20736574757020646F6EC4
:1024CE0065006A6F7920736574757020646F6E6530
:1024DE0000496E697469616C697A6174696F6E2006
:1024EE00646F6E65004D61696E206D656E7500508E
:1024FE006C61792067616D6521004869676820739A
:10250E00636F726573210053637265656E206F7021
:10251E0074696F6E73004272696768746E65737367
:10252E000047616D65206F7074696F6E730053653F
:10253E007420646966666963756C7479005265739C
:10254E0065742048692D73636F726573004D656401
:10255E0069756D004861726400496D706F737369BF
:04256E00626C650036
:00000001FF
