S01700004763634170706C69636174696F6E312E737265635B
S11300000C94B4010C94D1010C94D1010C94D10141
S11300100C94D1010C94D1010C94D1010C94D10114
S11300200C94D1010C94D1010C94D1010C94D10104
S11300300C94D1010C94D1010C94D1010C94D101F4
S11300400C94D1010C94D1010C94D1010C94D101E4
S11300500C94D1010C94D1010C94D1010C94D101D4
S11300600C94D1010C94D1010C94D1010C94D101C4
S1130070000000000000000000065F5F06000000B2
S11300800007070007070000147F7F147F7F140018
S1130090242E6B6B3A120000466630180C66620020
S11300A0307A4F5D377A48000407030000000000EF
S11300B0001C3E63410000000041633E1C00000040
S11300C0082A3E1C1C3E2A0808083E3E0808000078
S11300D000A0E0600000000008080808080800000C
S11300E000006060000000006030180C060301008E
S11300F03E7F594D7F3E000042427F7F40400000DA
S1130100627359496F660000226349497F360000D3
S1130110181C16137F7F1000276745457D390000A2
S11301203C7E4B4979300000036371190F070000CE
S1130130367F49497F360000064F49693F1E00005B
S113014000006C6C0000000000A0EC6C00000000DB
S1130150081C366341000000141414141414000025
S1130160004163361C080000020351590F060000C9
S11301703E7F415D5D1F1E007C7E13137E7C00006C
S1130180417F7F49497F36001C3E63414163220021
S1130190417F7F41637F1C00417F7F495D41630054
S11301A0417F7F491D0103001C3E6341517372006E
S11301B07F7F08087F7F000000417F7F41000000AF
S11301C0307040417F3F0100417F7F081C7763000E
S11301D0417F7F41406070007F7F060C067F7F0077
S11301E07F7F060C187F7F001C3E6341633E1C002A
S11301F0417F7F49090F06001E3F21717F5E000089
S1130200417F7F19396F460026674D597B320000C4
S113021003417F7F410300007F7F40407F7F0000D8
S11302201F3F60603F1F00007F7F3018307F7F00DA
S113023063771C081C776300074F78784F0700002A
S11302406773594D47637100007F7F41410000008F
S11302500103060C183060000041417F7F0000005C
S1130260080C0603060C0800808080808080808053
S11302700000030704000000207454543C7840003C
S1130280413F7F44447C3800387C44446C2800005F
S1130290307848493F7F4000387C54545C18000053
S11302A0487E7F490302000098BCA4A4F87C0400A3
S11302B0417F7F08047C780000447D7D400000007D
S11302C040C484FD7D000000417F7F10386C4400F1
S11302D000417F7F400000007C7C0C180C7C78007F
S11302E07C7C04047C780000387C44447C38000026
S11302F084FCF8A4243C1800183C24A4F8FC8400D2
S1130300447C78441C180000485C54547424000055
S113031000043E7F442400003C7C40403C7C400080
S11303201C3C60603C1C00003C7C6030607C3C00F9
S1130330446C3810386C44009CBCA0A0FC7C0000C9
S11303404C64745C4C64000008083E774141000032
S113035000000077770000004141773E0808000064
S1130360020301030203010011241FBECFEFD4E0F6
S1130370DEBFCDBF12E0A0E0B1E0E6EAF4E102C0E6
S113038005900D92A631B107D9F722E0A6E1B2E0BB
S113039001C01D92A032B207E1F70E9424030C941D
S11303A0510A0C9400000E941A054FEF60E680E6A3
S11303B00E94F6044FEF60E680E70E94F60440E0F6
S11303C060EE8FE00C94F604EF92FF920F931F936C
S11303D0CF93DF93EC01F62E8F2D0E94C80483FD8A
S11303E0FBCF6881798183E0769567958A95E1F7FB
S11303F081E08F0D0E94D70468816295660F607E4C
S113040082E08F0D0E94D7046A816F7085E08F0DA2
S11304100E94D70400E010E096E0E92EEF0C2A8158
S113042030E0021713075CF4FE01E00FF11F638153
S11304308E2D800F0E94D7040F5F1F4FF0CF8F2D9A
S113044082958F708258DF91CF911F910F91FF9009
S1130450EF900C941505CF9380B38CE20E94C804EE
S113046080FF07C04FEF61E08CE20E94F604C0E613
S113047013C0C82FC27081FF07C04FEF62E08CE247
S11304800E94F604C0E708C026E031E03F932F93B2
S11304900E943E070F900F908C2FCF9108956F927A
S11304A07F928F929F92AF92BF92CF92DF92EF9200
S11304B0FF920F931F93CF93DF93CDB7DEB72B97A4
S11304C00FB6F894DEBF0FBECDBF6C010E942B02A5
S11304D0782E81E0870D0E94C804E82E82E0870D03
S11304E00E94C80482958695877098E0E99E700101
S11304F01124E82A85E0870D0E94C8048F70682EB5
S11305005E01E4E0AE0EB11C00E010E0882E912CF8
S1130510F6E07F0E0815190554F4872D800F0E940C
S1130520C804F50181935F010F5F1F4FF3CF40E0D3
S113053061E08CE20E94F604FA82E9826B828BE02D
S1130540FE013196D60101900D928A95E1F7C6011C
S11305502B960FB6F894DEBF0FBECDBFDF91CF91BF
S11305601F910F91FF90EF90DF90CF90BF90AF90CD
S11305709F908F907F906F900895EF92FF920F93CA
S11305801F93CF93DF93CDB7DEB72B970FB6F894B5
S1130590DEBF0FBECDBFDE011496F901042F10E0BB
S11305A07F01E21AF30AE016F1061CF451915D93FF
S11305B0F7CF7A8369834B832BE0FE013196DC010C
S11305C001900D922A95E1F72B960FB6F894DEBFB1
S11305D00FBECDBFDF91CF911F910F91FF90EF9090
S11305E00895CF93DF93CDB7DEB767970FB6F8942E
S11305F0DEBF0FBECDBF288B398B4A8B5B8B6C8BD8
S11306007D8B8E8B9F8B888999898C878A899B891E
S11306108D878E898E878F879E01245F3F4F44E0AC
S113062065E570E0CE0101960E94BD0260E3CE0153
S113063001960E94E40167960FB6F894DEBF0FBEE0
S1130640CDBFDF91CF910895CF93DF93CDB7DEB7C0
S1130650A0970FB6F894DEBF0FBECDBF81E090E047
S11306609D8B8C8B8FE190E00E94BB0568EC75E05C
S113067084EC95E00E94F30685E291E00E94520723
S11306800E94B70585E391E00E945207CE010C96C3
S11306900E94A90485E491E00E9452070E94640527
S11306A00E94D30184E591E00E9452070E94C10395
S11306B00E9421041BE0CE010C960E94B4042C85F8
S11306C03D854E855F85688979898A899B890E94E1
S11306D0F1020E942B02882369F0CE0146960E9403
S11306E04F02FE017696DE011196812F01900D9244
S11306F08A95E1F70E94C4049C0141E067E770E039
S1130700CE0146960E94BD02FE017696DE01119648
S1130710812F01900D928A95E1F760E3CE01019655
S11307200E94E401C8CFCF92DF92EF92FF920F9321
S11307301F93CF93DF931F92CDB7DEB78C017B015C
S113074089E090E049830E94CC056C01FC0116838A
S1130750058349814083F086E782F9E04F9FC00119
S113076011240E94CC05F60192838183C6010F9067
S1130770DF91CF911F910F91FF90EF90DF90CF9079
S11307800895EF92FF920F931F93CF93DF9342E06C
S113079060E070E088E691E00E949303EC0141E0A0
S11307A060E070E082E791E00E9493038C0141E0F5
S11307B060E070E081E891E00E9493037C0140E0F6
S11307C063E975E08FE891E00E949303E981FA817F
S11307D011830083E981FA81F382E282D8011196C0
S11307E0ED91FC911297918380831496DC93CE93C0
S11307F01397F701D483C383DC0112961C921E92D3
S11308001197CE01DF91CF911F910F91FF90EF903F
S11308100895CF93C82F80E090E00E943F0580E2C6
S11308200E942B0580E090E00E943F0580EB8C0F36
S11308300E941E050E94210588E090E0CF910C944F
S11308403F05EF92FF920F931F93CF93DF93EC0139
S11308500E94560580E090E00E943F058E818F93B0
S11308608D818F938AE991E09F938F930E943E0735
S113087060E070E08D819E810E9447050F900F908B
S11308800F900F90E12CF12C00E010E0888190E0B3
S113089008171907B4F48AE090E00E943F050F5F3F
S11308A01F4FE981FA81EE0DFF1D0190F081E02DCB
S11308B0B801858196810E94470582E0E80EF11C0B
S11308C0E5CF81E090E0DF91CF911F910F91FF90F0
S11308D0EF900C94090484E08093001482E68A95D6
S11308E0F1F7000080910014089585E080930014CE
S11308F082E68A95F1F70000809100140895CF9361
S1130900DF93EC010E946B04282F30E03D832C839D
S11309101F928F938EEF91E09F938F930E943E07D7
S11309200E947504282F30E03F832E831F928F93FB
S11309308AE092E09F938F930E943E078DB79EB703
S113094008960FB6F8949EBF0FBE8DBFDF91CF916E
S113095008950E947F0487B3887F87BB88B387602C
S113096088BB8A98929A0895CF93DF93EC010E94F2
S11309706B0490E0998388830E94750490E09B83C4
S11309808A83DF91CF91089586B3817090E00895B2
S1130990CF93C82FC49883E00E94B2058C2F0E9485
S11309A0B20580E00E94B205C49ACF9108951F93C6
S11309B0CF93DF931F92CDB7DEB7182FC49882E090
S11309C069830E94B205812F0E94B2056981862F36
S11309D00E94B205C49A0F90DF91CF911F910895A0
S11309E0C49880EC0E94B205C49A08951F93CF93D3
S11309F0DF9300D0CDB7DEB7182FC49885E04A83C3
S1130A0069830E94B205812F0E94B2056981862FF5
S1130A100E94B2054A81842F0E94B205C49A0F90A5
S1130A200F90DF91CF911F910895C4980E94B20551
S1130A30C49A08950E94AC050C94F00480930010AD
S1130A400895EDE1F1E081918093001281E0E532B7
S1130A50F807C9F7089528E0829FC001112420E017
S1130A6030E080599040FC01E20FF31FE491E093E1
S1130A7000122F5F3F4F28303105A9F70895E0E0B9
S1130A80F0E191E2908380838FEF80830895CF9388
S1130A90DF93605560930010EC018991882319F06D
S1130AA00E942B05FACFDF91CF91089520EB20937C
S1130AB0001080E890E01092001201970097D9F797
S1130AC02F5F283BA1F70895E0E0F0E18EEA8083F0
S1130AD081EA80838AED808382E1808388EC80834D
S1130AE088EA80838FE3808385ED808380E8808338
S1130AF081E8808380E5808389ED808381E280833F
S1130B0080E2808382E080838BED808380E3808336
S1130B108DEA8083108284EA808386EA80838FEA68
S1130B2080830C94560586EA809300102FEF8FE79C
S1130B3091E0215080409040E1F700C000C087EA76
S1130B40809300102FEF8FE791E021508040904078
S1130B50E1F700C000C0089580EB87BBBE9881E533
S1130B608DB908958FB9779BFECF8FB1089585B75E
S1130B70806885BF089590BD89B98AB188618AB9B2
S1130B8080B5866880BD08955D9BFECF8CB90895BD
S1130B905F9BFECF8CB10895CF93DF938230910594
S1130BA010F482E090E0E0911802F091190220E044
S1130BB030E0A0E0B0E0309739F14081518148172E
S1130BC05907B8F04817590771F482819381109737
S1130BD029F013969C938E9312972CC0909319022C
S1130BE08093180227C02115310531F042175307AD
S1130BF018F0A901DB0101C0EF019A01BD01DF0179
S1130C000280F381E02DD7CF21153105F9F0281B9F
S1130C10390B2430310580F48A819B81611571057B
S1130C2021F0FB019383828304C090931902809383
S1130C301802FE01329644C0FE01E20FF31F8193B5
S1130C40919322503109398328833AC020911602A6
S1130C5030911702232B41F42091020130910301BA
S1130C603093170220931602209100013091010164
S1130C702115310541F42DB73EB74091040150913F
S1130C800501241B350BE0911602F0911702E217BF
S1130C90F307A0F42E1B3F0B2817390778F0AC019B
S1130CA04E5F5F4F2417350748F04E0F5F1F509378
S1130CB01702409316028193919302C0E0E0F0E0A2
S1130CC0CF01DF91CF910895CF93DF93009709F47B
S1130CD087C0FC01329713821282C0911802D0910E
S1130CE01902209781F420813181280F391F8091C6
S1130CF01602909117028217930779F5F093170261
S1130D00E09316026DC0DE0120E030E0AE17BF07AD
S1130D1050F412964D915C9113979D014115510524
S1130D2009F1DA01F3CFB383A28340815181840FA7
S1130D30951F8A179B0771F48D919C911197840FCD
S1130D40951F02969183808312968D919C9113979F
S1130D50938382832115310529F4F0931902E093DA
S1130D6018023EC0D9011396FC93EE9312974D914D
S1130D705D91A40FB51FEA17FB0779F48081918177
S1130D80840F951F0296D90111969C938E938281AC
S1130D90938113969C938E931297E0E0F0E08A81FE
S1130DA09B81009719F0FE01EC01F9CFCE01029668
S1130DB028813981820F931F2091160230911702E6
S1130DC02817390769F4309729F410921902109200
S1130DD0180202C013821282D0931702C093160223
S1130DE0DF91CF9108950F931F93CF93DF93EC017D
S1130DF08B01009731F46115710519F480E090E0DE
S1130E0038C06EE070E081E090E00E945109FC017E
S1130E100097A1F380E883830115110571F013870E
S1130E20028781E8838380911A0290911B02892BA7
S1130E3021F4F0931B02E0931A022097C9F0D187A2
S1130E40C08783818260838380911C0290911D02FC
S1130E50892B71F4F0931D02E0931C0280911E0211
S1130E6090911F02892B21F4F0931F02E0931E023C
S1130E70CF01DF91CF911F910F910895A0E0B0E0D1
S1130E80E4E4F7E00C942A0AFE013596619171912D
S1130E90AF0180911C0290911D020E947F07E2E045
S1130EA00C94460A0F931F93CF93DF93E0911C0297
S1130EB0F0911D02238121FF1BC0EC0100E010E032
S1130EC0899160911C0270911D02DB011896ED91CD
S1130ED0FC911997882331F00995892B89F30FEF39
S1130EE01FEFEECF8AE00995892B11F4C80102C0E7
S1130EF08FEF9FEFDF91CF911F910F910895ACE099
S1130F00B0E0E5E8F7E00C941A0A7C016B018A0171
S1130F10FC0117821682838181FFBDC1CE01019637
S1130F204C01F7019381F60193FD859193FF819123
S1130F306F01882309F4ABC1853239F493FD85919F
S1130F4093FF81916F01853229F4B70190E00E94EB
S1130F508A09E7CF512C312C20E02032A0F48B32C7
S1130F6069F030F4803259F0833269F420612CC086
S1130F708D3239F0803339F4216026C02260246038
S1130F8023C0286021C027FD27C030ED380F3A3038
S1130F9078F426FF06C0FAE05F9E300D1124532E2C
S1130FA013C08AE0389E300D1124332E20620CC009
S1130FB08E3221F426FD6BC1206406C08C3611F4F8
S1130FC0206802C0883641F4F60193FD859193FFB1
S1130FD081916F018111C1CF982F9F7D95549330DA
S1130FE028F40C5F1F4FFFE3F9830DC0833631F003
S1130FF0833771F0833509F05BC022C0F80180812A
S113100089830E5F1F4F44244394512C540115C00F
S11310103801F2E06F0E711CF801A080B18026FF48
S113102003C0652D70E002C06FEF7FEFC5012C8710
S11310300E947F092C0183012C852F77222E17C053
S11310403801F2E06F0E711CF801A080B18026FF18
S113105003C0652D70E002C06FEF7FEFC5012C87E0
S11310600E946D092C012C852068222E830123FC0B
S11310701BC0832D90E048165906B0F4B70180E2F6
S113108090E00E948A093A94F4CFF50127FC8591F7
S113109027FE81915F01B70190E00E948A09311017
S11310A03A94F1E04F1A51084114510471F7E5C024
S11310B0843611F0893639F5F80127FF07C06081BD
S11310C07181828193810C5F1F4F08C0608171819F
S11310D0882777FD8095982F0E5F1F4F2F76B22EAD
S11310E097FF09C090958095709561957F4F8F4FBC
S11310F09F4F2068B22E2AE030E0A4010E94BC0970
S1131100A82EA81844C0853729F42F7EB22E2AE0D1
S113111030E025C0F22FF97FBF2E8F36C1F018F4CE
S1131120883579F0B4C0803719F0883721F0AFC022
S11311302F2F2061B22EB4FE0DC08B2D8460B82EEB
S113114009C024FF0AC09F2F9660B92E06C028E06C
S113115030E005C020E130E002C020E132E0F801D7
S1131160B7FE07C060817181828193810C5F1F4F3C
S113117006C06081718180E090E00E5F1F4FA40182
S11311800E94BC09A82EA818FB2DFF77BF2EB6FE1F
S11311900BC02B2D2E7FA51450F4B4FE0AC0B2FC54
S11311A008C02B2D2E7E05C07A2C2B2D03C07A2C43
S11311B001C0752C24FF0DC0FE01EA0DF11D8081D4
S11311C0803311F4297E09C022FF06C073947394FE
S11311D004C0822F867809F0739423FD13C020FF86
S11311E006C05A2C731418F4530C5718732C731428
S11311F068F4B70180E290E02C870E948A09739416
S11312002C85F5CF731410F4371801C0312C24FF4A
S113121012C0B70180E390E02C870E948A092C85D4
S113122022FF17C021FF03C088E590E002C088E7D1
S113123090E0B7010CC0822F867859F021FD02C0DE
S113124080E201C08BE227FD8DE2B70190E00E94AD
S11312508A09A51438F4B70180E390E00E948A0952
S11312605A94F7CFAA94F401EA0DF11D8081B701D5
S113127090E00E948A09A110F5CF332009F451CEE1
S1131280B70180E290E00E948A093A94F6CFF70110
S11312908681978102C08FEF9FEF2C96E2E10C9438
S11312A0360A0F931F93CF93DF93869F8001879F06
S11312B0100D969F100D1124C8010E94CC05EC015D
S11312C0009729F0A80160E070E00E947809CE013F
S11312D0DF91CF911F910F910895FC01059061500A
S11312E070400110D8F7809590958E0F9F1F089538
S11312F0DC0101C06D9341505040E0F70895FC01BA
S11313006150704001900110D8F7809590958E0F30
S11313109F1F08950F931F93CF93DF93182F092FC7
S1131320EB018B8181FD03C08FEF9FEF20C082FF13
S113133010C04E815F812C813D81421753077CF49C
S1131340E881F9819F012F5F3F4F39832883108300
S113135006C0E885F985812F0995892B29F72E8107
S11313603F812F5F3F4F3F832E83812F902FDF914B
S1131370CF911F910F910895FA01AA27283051F1B6
S1131380203181F1E8946F936E7F6E5F7F4F8F4FB2
S11313909F4FAF4FB1E03ED0B4E03CD0670F781F11
S11313A0891F9A1FA11D680F791F8A1F911DA11DF6
S11313B06A0F711D811D911DA11D20D009F468942F
S11313C03F912AE0269F11243019305D3193DEF6D7
S11313D0CF010895462F4770405D4193B3E00FD08D
S11313E0C9F7F6CF462F4F70405D4A3318F0495D78
S11313F031FD4052419302D0A9F7EACFB4E0A6955B
S11314009795879577956795BA95C9F7009761057C
S1131410710508959B01AC010A2E069457954795D2
S113142037952795BA95C9F7620F731F841F951FC7
S1131430A01D08952F923F924F925F926F927F92D8
S11314408F929F92AF92BF92CF92DF92EF92FF92D0
S11314500F931F93CF93DF93CDB7DEB7CA1BDB0B7C
S11314600FB6F894DEBF0FBECDBF09942A88398821
S113147048885F846E847D848C849B84AA84B98428
S1131480C884DF80EE80FD800C811B81AA81B98134
S1131490CE0FD11D0FB6F894DEBF0FBECDBFED0148
S10914A00895F894FFCF4B
S11314A60000200220004E6F20696E74657272750A
S11314B670742064657465637465642100C35C2A72
S11314C66F6F2A5CC355415254207365747570203E
S11314D6646F6E65005352414D20736574757020B8
S11314E6646F6E65004A4F59207365747570206485
S11314F66F6E6500496E697469616C697A617469B5
S11315066F6E20646F6E65004D61696E206D656E49
S1131516750053637265656E206F7074696F6E73C0
S1131526004F74686572206F7074696F6E73005033
S113153661727479206D6F6465005469746C653AE0
S11315462025730A006361736520555000496E2097
S1131556646F776E2E0053656C65637420706F73C9
S11315663A2025640A004F7574206F6620646F77ED
S11315766E0063617365205249474854005375628F
S11315866D656E7520666F756E642100414354491E
S11315964F4E210063617365204C45465400582024
S11315A67A65726F3A2025640A0059207A65726F4B
S10915B63A2025640A003E
S9030000FC
