S00D00004E6F6465322E737265635F
S113000071C000008EC000008CC000008AC00000D7
S113001088C0000086C0000084C0000082C00000C8
S113002080C000007EC000007CC000007AC00000D8
S113003078C0000076C0000074C0000072C00000E8
S113004070C000006EC000006CC000006AC00000F8
S113005068C0000066C0000064C0000062C0000008
S113006060C000005EC000005CC000005AC0000018
S113007058C0000056C0000054C0000052C0000028
S113008050C000004EC000004CC000004AC0000038
S113009048C0000046C0000044C0000042C0000048
S11300A040C000003EC000003CC000003AC0000058
S11300B038C0000036C0000034C0000032C0000068
S11300C030C000002EC000002CC000002AC0000078
S11300D028C0000026C0000024C0000022C0000088
S11300E020C0000011241FBECFEFD1E2DEBFCDBF80
S11300F000E00CBF12E0A0E0B2E0E6EFFFE000E0B9
S11301000BBF02C007900D92A039B107D9F722E0C6
S1130110A0E9B2E001C01D92AA39B207E1F718D2F2
S113012068C76ECFEAE7F0E0808187688083ECE7F8
S1130130F0E080818064808380818F77808308955C
S1130140ECE7F0E0908121E030E002C0220F331FA1
S11301508A95E2F72370922B9083EAE7F0E080819E
S113016080648083808186FDFDCF809178009091AA
S113017079000895EAD14FEF60E680E6CED14FEFE3
S113018060E680E7CAD143E063E08EE2C6D140E096
S113019060EE8FE0C2C10895CF93DF93CDB7DEB791
S11301A02B970FB6F894DEBF0FBECDBF442361F08A
S11301B0A22FB32FFE0134969F01240F311D5D91B0
S11301C05193E217F307D9F77A8369834B832BE0C2
S11301D0FE013196DC0101900D922A95E1F72B96F0
S11301E00FB6F894DEBF0FBECDBFDF91CF91089557
S11301F0CF92DF92EF92FF920F931F93CF93DF93EF
S11302007C01C62E8C2D69D183FDFCCFF7012081A2
S11302103181B90176956795769567957695679559
S113022081E08C0D66D1F70160816295660F607E76
S113023082E08C0D5ED1F70162816F7085E08C0DD8
S113024058D1F70182818823B9F087010D5F1F4FD0
S11302500F2EF6E0DF2EF02DDC0CC0E0D0E0F8012C
S113026061918F018D2D45D12196D394F70122817F
S113027030E0C217D3079CF38C2D82958F7082587F
S113028060D1DF91CF911F910F91FF90EF90DF909C
S1130290CF900895CF9380B18CE21FD180FF06C028
S11302A04FEF61E08CE239D1C0E611C0C82FC270B3
S11302B081FF06C04FEF62E08CE22FD1C0E707C098
S11302C026E032E03F932F937AD20F900F908C2F39
S11302D0CF9108958F929F92AF92BF92CF92DF9267
S11302E0EF92FF920F931F93CF93DF93CDB7DEB7B7
S11302F02B970FB6F894DEBF0FBECDBF6C01CADFDB
S1130300182F81E0810FE9D0A82E82E0810FE5D07B
S1130310829586958770B12CAA0CBB1CAA0CBB1CB9
S1130320AA0CBB1CA82A85E0810FD7D08F70882E19
S1130330A1F00F2EF6E09F2EF02D910E8E010C5F92
S11303401F4F7801E80EF11C892DC7D0F801819365
S11303508F019394EE15FF05B9F740E061E08CE25C
S1130360DCD0BA82A9828B828BE0FE013196D60161
S113037001900D928A95E1F7C6012B960FB6F89479
S1130380DEBF0FBECDBFDF91CF911F910F91FF90C4
S1130390EF90DF90CF90BF90AF909F908F90089593
S11303A0EF92FF920F931F93CF93DF93CDB7DEB7F6
S11303B066970FB6F894DEBF0FBECDBF8C01FC016B
S11303C0E180F28080E0BCDE8E0D9F1DF8019283F7
S11303D0818320812F5F20832431C9F49C01ADECFB
S11303E0BCEC94D1929582958F7089279F70892750
S11303F09283818321E020838436910560F1138206
S113040006C081E0F801838384818F5F8483F801CF
S113041084811F928F938DE192E09F938F93CFD12C
S113042098012C5F3F4F41E066E670E0CE010C96E8
S1130430B3DE8BE0FE013C96DE01119601900D9235
S11304408A95E1F760E3CE010196D2DE0F900F901A
S11304500F900F9005C0F8018381882391F2D7CFC4
S113046066960FB6F894DEBF0FBECDBFDF91CF9175
S11304701F910F91FF90EF900895CF93DF93CDB725
S1130480DEB760970FB6F894DEBF0FBECDBF90E025
S11304909A87898770E07C876B8750E05E874D87F9
S11304A030E0388B2F8788E0FE013996DE01119603
S11304B001900D928A95E1F729813A814B815C8103
S11304C06D817E818F81988560960FB6F894DEBF2A
S11304D00FBECDBFDF91CF910895CF93C82F289839
S11304E083E0EFD08C2FEDD080E0EBD0289ACF9131
S11304F00895CF93DF93D82FC62F289882E0E1D0B8
S11305008D2FDFD08C2FDDD0289ADF91CF910895E5
S1130510289880ECD6D0289A08951F93CF93DF9320
S1130520182FD62FC42F289885E0CBD0812FC9D07F
S11305308D2FC7D08C2FC5D0289ADF91CF911F91D2
S113054008952898BED0289A0895B5D0E1CF08958B
S1130550CF93DF93CDB7DEB768970FB6F894DEBFBD
S11305600FBECDBF789487E690E0B1D06EE773E01C
S113057086E793E0DAD088E292E032D1FBDD88E3CB
S113058092E02ED155D087E492E02AD1CBDD86E5E6
S113059092E026D185E692E023D10A9A1C8A1F8A2A
S11305A0188E1E8A1D8A0F2EF9E7EF2EF2E0FF2E19
S11305B0F02D0F2EF1E8CF2EF2E0DF2EF02D80E0AB
S11305C0BFDD9F938F93FF92EF92F9D063DE0F907C
S11305D00F900F900F90882331F0CE0109967ADEA8
S11305E009851A85BC840535110589F42F854E8546
S11305F06D858B2D42DF29833A834B835C836D8326
S11306007E838F83988789819A812AD00DC007378A
S1130610110551F4DF92CF92D2D00F900F90BB20EE
S113062011F0129A01C01298CE014496B9DEC7CFD8
S11306306B9AE0E9F0E080818E7B80838081826820
S11306408083E1E9F0E080818D61808380818D7F0A
S1130650808388E391E090939700809396000895B7
S113066043E1489F9001499F300D1124A1E8B0E86F
S11306704DD0880F892F881F990B91959C012B5081
S113068031092330310538F489E190E090939900E1
S11306908093980008958931910530F40D969093D4
S11306A0990080939800089589E190E090939900CF
S11306B080939800089587E084B9239881E58CBDE0
S11306C008958EBD0DB407FEFDCF8EB508959093A9
S11306D0C5008093C400E1ECF0E0808188618083F0
S11306E0E2ECF0E08081866080830895E0ECF0E045
S11306F0908195FFFDCF8093C6000895E0ECF0E073
S113070080818823ECF78091C6000895A29FB001F0
S1130710B39FC001A39F700D811D1124911DB29F31
S1130720700D811D1124911D08950F931F93CF9374
S1130730DF93EC018B01009731F46115710519F415
S113074080E090E037C06EE070E081E090E063D23A
S1130750FC010097A9F380E883830115110571F06A
S11307601387028781E8838380919002909191029C
S1130770892B21F4F0939102E09390022097C9F021
S1130780D187C08783818260838380919202909114
S11307909302892B71F4F0939302E0939202809177
S11307A0940290919502892B21F4F0939502E093A1
S11307B09402CF01DF91CF911F910F910895CF93B0
S11307C0DF93CDB7DEB7FE01369661917191AF012B
S11307D0809192029091930230D0DF91CF9108954D
S11307E00F931F93CF93DF93E0919202F0919302C2
S11307F0238121FF1BC0EC0100E010E0899160918E
S1130800920270919302DB011896ED91FC91199775
S1130810882331F01995892B89F30FEF1FEFEECF61
S11308208AE01995892B11F4C80102C08FEF9FEF5C
S1130830DF91CF911F910F9108952F923F924F9284
S11308405F926F927F928F929F92AF92BF92CF925C
S1130850DF92EF92FF920F931F93CF93DF93CDB765
S1130860DEB72C970FB6F894DEBF0FBECDBF7C0168
S11308706B018A01FC0117821682838181FFB0C15A
S1130880CE0101964C01F7019381F60193FD859108
S113089093FF81916F01882309F49EC1853239F455
S11308A093FD859193FF81916F01853221F4B70106
S11308B090E00FD3E8CF512C312C20E02032A0F46B
S11308C08B3269F030F4803259F0833269F420615C
S11308D02CC08D3239F0803339F4216026C0226077
S11308E0246023C0286021C027FD27C030ED380FC5
S11308F03A3078F426FF06C0FAE05F9E300D1124EA
S1130900532E13C08AE0389E300D1124332E2062FA
S11309100CC08E3221F426FD5FC1206406C08C36E3
S113092011F4206802C0883641F4F60193FD8591E4
S113093093FF81916F018111C1CF982F9F7D9554B1
S1130940933028F40C5F1F4FFFE3F9830DC0833607
S113095031F0833771F0833509F057C021C0F801B5
S1130960808189830E5F1F4F44244394512C54018A
S113097014C03801F2E06F0E711CF801A080B18040
S113098026FF03C0652D70E002C06FEF7FEFC50145
S11309902C8794D22C0183012C852F77222E16C00C
S11309A03801F2E06F0E711CF801A080B18026FFBF
S11309B003C0652D70E002C06FEF7FEFC5012C8787
S11309C06BD22C012C852068222E830123FC19C0B4
S11309D0832D90E048165906A0F4B70180E290E018
S11309E078D23A94F5CFF50127FC859127FE8191C1
S11309F05F01B70190E06DD231103A94F1E04F1AE3
S1130A0051084114510479F7DEC0843611F0893657
S1130A1031F5F80127FF07C06081718182819381DC
S1130A200C5F1F4F08C060817181882777FD809516
S1130A30982F0E5F1F4F2F76B22E97FF09C0909507
S1130A408095709561957F4F8F4F9F4F2068B22E90
S1130A502AE030E0A4016FD2A82EA81843C085373D
S1130A6029F42F7EB22E2AE030E025C0F22FF97F40
S1130A70BF2E8F36C1F018F4883579F0ADC08037B9
S1130A8019F0883721F0A8C02F2F2061B22EB4FEB0
S1130A900DC08B2D8460B82E09C024FF0AC09F2F7F
S1130AA09660B92E06C028E030E005C020E130E0B1
S1130AB002C020E132E0F801B7FE07C06081718115
S1130AC0828193810C5F1F4F06C06081718180E039
S1130AD090E00E5F1F4FA4012ED2A82EA818FB2D64
S1130AE0FF77BF2EB6FE0BC02B2D2E7FA51450F41E
S1130AF0B4FE0AC0B2FC08C02B2D2E7E05C07A2C91
S1130B002B2D03C07A2C01C0752C24FF0DC0FE01CF
S1130B10EA0DF11D8081803311F4297E09C022FF82
S1130B2006C07394739404C0822F867809F073947A
S1130B3023FD12C020FF06C05A2C731418F4530C62
S1130B405718732C731460F4B70180E290E02C877B
S1130B50C0D173942C85F6CF731410F4371801C0E8
S1130B60312C24FF11C0B70180E390E02C87B1D170
S1130B702C8522FF16C021FF03C088E590E002C047
S1130B8088E790E0B7010CC0822F867851F021FDF0
S1130B9002C080E201C08BE227FD8DE2B70190E044
S1130BA098D1A51430F4B70180E390E092D15A941F
S1130BB0F8CFAA94F401EA0DF11D8081B70190E009
S1130BC088D1A110F6CF332009F45DCEB70180E2BD
S1130BD090E07FD13A94F7CFF7018681978102C0E4
S1130BE08FEF9FEF2C960FB6F894DEBF0FBECDBFEC
S1130BF0DF91CF911F910F91FF90EF90DF90CF90F5
S1130C00BF90AF909F908F907F906F905F904F9028
S1130C103F902F9008950F931F93CF93DF93869F58
S1130C208001879F100D969F100D1124C8010DD0CF
S1130C30EC01009721F0A80160E070E038D1CE010A
S1130C40DF91CF911F910F910895CF93DF9382305D
S1130C50910510F482E090E0E0919802F0919902FD
S1130C6020E030E0A0E0B0E0309739F140815181DC
S1130C7048175907B8F04817590771F482819381CE
S1130C80109729F013969C938E9312972CC09093EF
S1130C9099028093980227C02115310531F042173B
S1130CA0530718F0A901DB0101C0EF019A01BD014E
S1130CB0DF010280F381E02DD7CF21153105F9F052
S1130CC0281B390B2430310580F48A819B816115FE
S1130CD0710521F0FB019383828304C090939902F0
S1130CE080939802FE01329644C0FE01E20FF31F86
S1130CF08193919322503109398328833AC02091FA
S1130D00960230919702232B41F4209102023091F4
S1130D1003023093970220939602209100023091AF
S1130D2001022115310541F42DB73EB7409104026B
S1130D3050910502241B350BE0919602F091970225
S1130D40E217F307A0F42E1B3F0B2817390778F09E
S1130D50AC014E5F5F4F2417350748F04E0F5F1FFD
S1130D6050939702409396028193919302C0E0E0DE
S1130D70F0E0CF01DF91CF910895CF93DF930097F7
S1130D8009F487C0FC01329713821282C091980241
S1130D90D0919902209781F420813181280F391F45
S1130DA080919602909197028217930779F5F093B8
S1130DB09702E09396026DC0DE0120E030E0AE17AA
S1130DC0BF0750F412964D915C9113979D01411504
S1130DD0510509F1DA01F3CFB383A2834081518134
S1130DE0840F951F8A179B0771F48D919C9111971D
S1130DF0840F951F02969183808312968D919C9106
S1130E001397938382832115310529F4F093990272
S1130E10E09398023EC0D9011396FC93EE93129787
S1130E204D915D91A40FB51FEA17FB0779F48081FA
S1130E309181840F951F0296D90111969C938E93EC
S1130E408281938113969C938E931297E0E0F0E055
S1130E508A819B81009719F0FE01EC01F9CFCE0144
S1130E60029628813981820F931F20919602309136
S1130E7097022817390769F4309729F410929902D8
S1130E801092980202C013821282D0939702C093E8
S1130E909602DF91CF910895FC0105906150704056
S1130EA00110D8F7809590958E0F9F1F0895DC014F
S1130EB001C06D9341505040E0F70895FC0161502A
S1130EC0704001900110D8F7809590958E0F9F1F68
S1130ED008950F931F93CF93DF93182F092FEB01DE
S1130EE08B8181FD03C08FEF9FEF20C082FF10C074
S1130EF04E815F812C813D81421753077CF4E88148
S1130F00F9819F012F5F3F4F39832883108306C0E7
S1130F10E885F985812F1995892B29F72E813F8141
S1130F202F5F3F4F3F832E83812F902FDF91CF91EF
S1130F301F910F910895FA01AA27283051F1203109
S1130F4081F1E8946F936E7F6E5F7F4F8F4F9F4F59
S1130F50AF4FB1E03ED0B4E03CD0670F781F891F9B
S1130F609A1FA11D680F791F8A1F911DA11D6A0F69
S1130F70711D811D911DA11D20D009F468943F911C
S1130F802AE0269F11243019305D3193DEF6CF011B
S1130F900895462F4770405D4193B3E00FD0C9F7E1
S1130FA0F6CF462F4F70405D4A3318F0495D31FD4E
S1130FB04052419302D0A9F7EACFB4E0A6959795A1
S1130FC0879577956795BA95C9F700976105710577
S1130FD008959B01AC010A2E0694579547953795C1
S1130FE02795BA95C9F7620F731F841F951FA01D1B
S1090FF00895F894FFCF00
S1130FF600009A0220004E6F20696E746572727545
S11310067074206465746563746564210053636F4A
S113101672653A2025640A0055415254207365745A
S1131026757020646F6E650043414E207365747558
S11310367020646F6E650050574D2073657475702B
S113104620646F6E65004144432073657475702097
S1131056646F6E6500496E697469616C697A61745E
S1131066696F6E20646F6E650049523A2025640AE2
S113107600427574746F6E207072657373656400D4
S9030000FC
