:10000000C2C00000E0C00000DEC00000DCC0000094
:10001000DAC00000D8C00000D6C00000D4C0000084
:10002000D2C00000D0C00000CEC00000CCC0000094
:10003000CAC00000C8C00000C6C00000C4C00000A4
:10004000C2C00000C0C00000BEC00000BCC00000B4
:10005000BAC00000B8C00000B6C00000B4C00000C4
:10006000B2C00000B0C00000AEC00000ACC00000D4
:10007000AAC00000A8C00000A6C00000A4C00000E4
:10008000A2C00000A0C000009EC000009CC00000F4
:100090009AC0000098C0000096C0000051C4000043
:1000A00092C0000090C000008EC000008CC0000014
:1000B0008AC0000088C0000086C0000084C0000024
:1000C00082C0000080C000007EC000007CC0000034
:1000D0007AC0000078C0000076C0000074C0000044
:1000E00072C00000BB040D050D050D050D050D05C5
:1000F0000D050D05BB040D050D050D050D050D05C3
:100100000D050D05BD040D050D050D050D050D05B0
:100110000D050D050D050D050D050D050D050D054F
:100120000D050D05BD040D050D050D050D050D0590
:100130000D050D050D050D050D050D050D050D052F
:100140000D050D0509050D050D050D050D050D0523
:100150000D050D05E6040D050D050D050D050D0537
:100160000D050D050D050D050D050D050D050D05FF
:100170000D050D05DA040D050D050D050D050D0523
:100180000D050D05F80411241FBECFEFD1E2DEBF2F
:10019000CDBF00E00CBF12E0A0E0B2E0EAE7F3E17F
:1001A00000E00BBF02C007900D92A639B107D9F746
:1001B00022E0A6E9B2E001C01D92A83AB207E1F739
:1001C000CAD20C94BB091CCFEAE7F0E080818768B3
:1001D0008083ECE7F0E080818064808380818F778A
:1001E00080830895ECE7F0E0908121E030E002C0E8
:1001F000220F331F8A95E2F72370922B9083EAE750
:10020000F0E0808180648083808186FDFDCF8091D5
:10021000780090917900089537D24FEF60E680E63C
:100220001BD24FEF60E680E717D243E063E08EE237
:1002300013D240E060EE8FE00FC20895CF93DF93BA
:10024000CDB7DEB72B970FB6F894DEBF0FBECDBF8C
:10025000442361F0A22FB32FFE0134969F01240F97
:10026000311D5D915193E217F307D9F77A836983C2
:100270004B832BE0FE013196DC0101900D922A9513
:10028000E1F72B960FB6F894DEBF0FBECDBFDF911E
:10029000CF910895CF92DF92EF92FF920F931F9329
:1002A000CF93DF937C01C62E8C2DB6D183FDFCCF7E
:1002B000F70120813181B90176956795769567952B
:1002C0007695679581E08C0DB3D1F70160816295D9
:1002D000660F607E82E08C0DABD1F70162816F709A
:1002E00085E08C0DA5D1F70182818823B9F08701C3
:1002F0000D5F1F4F0F2EF6E0DF2EF02DDC0CC0E05F
:10030000D0E0F80161918F018D2D92D12196D39487
:10031000F701228130E0C217D3079CF38C2D829520
:100320008F708258ADD1DF91CF911F910F91FF90C7
:10033000EF90DF90CF90089580B18CE26DD180FF77
:1003400006C04FEF61E08CE287D190E609C0982F9C
:10035000927081FF05C04FEF62E08CE27DD190E7A3
:10036000892F08958F929F92AF92BF92CF92DF9282
:10037000EF92FF920F931F93CF93DF93CDB7DEB72A
:100380002B970FB6F894DEBF0FBECDBF6C01D4DF44
:10039000182F81E0810F40D1A82E82E0810F3CD13F
:1003A000829586958770B12CAA0CBB1CAA0CBB1C2D
:1003B000AA0CBB1CA82A85E0810F2ED18F70882E35
:1003C000A1F00F2EF6E09F2EF02D910E8E010C5F06
:1003D0001F4F7801E80EF11C892D1ED1F801819381
:1003E0008F019394EE15FF05B9F740E061E08CE2D0
:1003F00033D1BA82A9828B828BE0FE013196D6017D
:1004000001900D928A95E1F7C6012B960FB6F894EC
:10041000DEBF0FBECDBFDF91CF911F910F91FF9037
:10042000EF90DF90CF90BF90AF909F908F90089506
:10043000EF92FF920F931F93CF93DF93CDB7DEB769
:100440002B970FB6F894DEBF0FBECDBFE982FA82BC
:100450001C8389819A818535910551F487E092E06A
:100460009F938F936ED38C8190E007D20F900F9063
:100470002B960FB6F894DEBF0FBECDBFDF91CF91A4
:100480001F910F91FF90EF900895EF92FF920F93BD
:100490001F93CF93DF93CDB7DEB72B970FB6F894AA
:1004A000DEBF0FBECDBFE982FA820B831C832D8392
:1004B0003E834F83588769877A878B8789819A81A2
:1004C0008737910529F4112311F0129A01C012986F
:1004D0002B960FB6F894DEBF0FBECDBFDF91CF9144
:1004E0001F910F91FF90EF900895CF93C82FFCD1EB
:1004F0007894C0939602CF910895CF93DF9300D064
:10050000CDB7DEB7909196029770990F9065998359
:1005100087708A836B8363E0CE010196EFD10F90E1
:100520000F900F90DF91CF910895EF92FF920F936C
:100530001F93CF93DF93CDB7DEB766970FB6F894CE
:10054000DEBF0FBECDBF8C01FC01E180F28080E0F8
:1005500049DE8E0D9F1DF8019283818320812F5FDC
:1005600020832431C9F49C01ADECBCEC91D292956E
:1005700082958F7089279F7089279283818321E0DC
:10058000208384369105F8F0138206C081E0F801DB
:10059000838384818F5F848398012C5F3F4F41E088
:1005A00066E670E0CE010C9649DE8BE0FE013C96DB
:1005B000DE01119601900D928A95E1F760E3CE017C
:1005C000019668DE05C0F80183818823F9F2E4CF43
:1005D00066960FB6F894DEBF0FBECDBFDF91CF9108
:1005E0001F910F91FF90EF900895CF93DF9300D06C
:1005F0001F921F92CDB7DEB7362F542F622F472F91
:10060000282F70E080E090E00F900F900F900F90F7
:100610000F90DF91CF910895CF93C82F289883E052
:100620005DD18C2F5BD180E059D1289ACF9108956C
:10063000CF93DF93D82FC62F289882E04FD18D2FEC
:100640004DD18C2F4BD1289ADF91CF9108952898C6
:1006500080EC44D1289A08951F93CF93DF93182FED
:10066000D62FC42F289885E039D1812F37D18D2FEF
:1006700035D18C2F33D1289ADF91CF911F910895D6
:1006800028982CD1289A089523D1E1CF089581B3D9
:10069000807481BB8AE68A95F1F700C08E9A08952E
:1006A00080B3886F80BB8C9AF2CF0895682F80E06A
:1006B00024CF0895892B11F08B9808958B9A089573
:1006C00080E090E0F7DF2FEF89E698E1215080404D
:1006D0009040E1F700C0000081E090E0EBDF2FEFF9
:1006E00089E698E1215080409040E1F700C0000089
:1006F0000895282F2575220F982F9A7A9695922B78
:10070000292F2373220F220F892F8C7C86958695A3
:10071000822B82950895CF93DF9381B38F7581BB30
:100720002AE62A95F1F700C080910601E2DFC82F82
:10073000D0E0DC2FCC278D9A3AE63A95F1F700C04D
:1007400080910601D6DF8F9A9E01280F311DC901C5
:10075000DF91CF910895CF93DF93CDB7DEB7609748
:100760000FB6F894DEBF0FBECDBF789487E690E059
:100770006AD16AE375E082E395E099D181E192E084
:10078000F1D14ADD81E292E0EDD15FD080E392E0E9
:10079000E9D11ADD8FE392E0E5D182DF8EE492E0C9
:1007A000E1D180E0A2DE8FE592E0DCD18EE692E03E
:1007B000D9D10A9A20E040E060E070E080E015DFE7
:1007C0002C873D874E875F87688B84E66FDF0F2E0F
:1007D000F2E8AF2EF2E0BF2EF02D0F2EF8E8CF2E6C
:1007E000F2E0DF2EF02DA8DD882319F0CE0101966E
:1007F000B9DDBF92AF92A5D1E980FA800B811C814F
:100800002D813E814F81588569857A858B8510DEE3
:10081000E980FA800B811C812D813E814F815885B2
:1008200069857A858B8531DECE010C967EDE48DFC8
:1008300072DF9F938F93DF92CF9283D10F900F90AF
:100840000F900F900F900F90CECF6B9AE0E9F0E0F1
:1008500080818E7B8083808182688083E1E9F0E003
:1008600080818D61808380818D7F808388E391E0AA
:100870009093970080939600089543E1489F9001DC
:10088000499F300D1124A1E8B0E802D1880F892FCB
:10089000881F990B91959C012B503109233031050C
:1008A00038F489E190E0909399008093980008953E
:1008B0008931910530F40D969093990080939800BA
:1008C000089589E190E090939900809398000895AD
:1008D00087E084B9239881E58CBD08958EBD0DB461
:1008E00007FEFDCF8EB508958CE08093B8008FEFA2
:1008F0008093BB0084E08093BC000895ECEBF0E0B3
:10090000208120FDFDCF60939902FC01208120937E
:100910009A0220FD0CC0623050F0DC011196EBE928
:10092000F2E081E09D9191938F5F8613FBCF10924F
:10093000980288EF8093060285EA8093BC000895B0
:100940001F920F920FB60F9211240BB60F922F9396
:100950003F938F939F93AF93BF93EF93FF938091B8
:10096000B90090E0FC013897E135F10508F055C079
:10097000EE58FF4F87C010929702E0919702809146
:100980009902E81770F481E08E0F80939702F0E0EF
:10099000E656FD4F80818093BB0085E88093BC00C4
:1009A00043C08091980281608093980284E980938B
:1009B000BC003AC0E091970281E08E0F80939702CD
:1009C0008091BB00F0E0E656FD4F808320919702B6
:1009D00030E08091990290E001972817390724F4BC
:1009E00085EC8093BC0020C085E88093BC001CC0CF
:1009F0008091BB00E0919702F0E0E656FD4F8083C6
:100A00008091980281608093980284E98093BC0071
:100A10000BC085EA8093BC0007C08091B900809329
:100A2000060284E08093BC00FF91EF91BF91AF91EB
:100A30009F918F913F912F910F900BBE0F900FBE02
:100A40000F901F9018959093C5008093C400E1EC1F
:100A5000F0E0808188618083E2ECF0E08081866054
:100A600080830895E0ECF0E0908195FFFDCF8093C6
:100A7000C6000895E0ECF0E080818823ECF78091D7
:100A8000C6000895EE0FFF1F0590F491E02D199414
:100A9000A29FB001B39FC001A39F700D811D1124BF
:100AA000911DB29F700D811D1124911D08950F930A
:100AB0001F93CF93DF93EC018B01009731F4611505
:100AC000710519F480E090E037C06EE070E081E0DD
:100AD00090E063D2FC010097A9F380E883830115BD
:100AE000110571F01387028781E8838380919E024C
:100AF00090919F02892B21F4F0939F02E0939E0234
:100B00002097C9F0D187C0878381826083838091D9
:100B1000A0029091A102892B71F4F093A102E093BD
:100B2000A0028091A2029091A302892B21F4F0935C
:100B3000A302E093A202CF01DF91CF911F910F9109
:100B40000895CF93DF93CDB7DEB7FE01369661915E
:100B50007191AF018091A0029091A10230D0DF91FC
:100B6000CF9108950F931F93CF93DF93E091A0024D
:100B7000F091A102238121FF1BC0EC0100E010E0F5
:100B800089916091A0027091A102DB011896ED910C
:100B9000FC911997882331F01995892B89F30FEF70
:100BA0001FEFEECF8AE01995892B11F4C80102C01E
:100BB0008FEF9FEFDF91CF911F910F9108952F92AB
:100BC0003F924F925F926F927F928F929F92AF92DD
:100BD000BF92CF92DF92EF92FF920F931F93CF932A
:100BE000DF93CDB7DEB72C970FB6F894DEBF0FBEFC
:100BF000CDBF7C016B018A01FC01178216828381C3
:100C000081FFB0C1CE0101964C01F7019381F6013D
:100C100093FD859193FF81916F01882309F49EC113
:100C2000853239F493FD859193FF81916F0185326F
:100C300021F4B70190E00FD3E8CF512C312C20E004
:100C40002032A0F48B3269F030F4803259F08332D4
:100C500069F420612CC08D3239F0803339F4216081
:100C600026C02260246023C0286021C027FD27C041
:100C700030ED380F3A3078F426FF06C0FAE05F9E78
:100C8000300D1124532E13C08AE0389E300D1124EC
:100C9000332E20620CC08E3221F426FD5FC1206409
:100CA00006C08C3611F4206802C0883641F4F60183
:100CB00093FD859193FF81916F018111C1CF982F91
:100CC0009F7D9554933028F40C5F1F4FFFE3F98309
:100CD0000DC0833631F0833771F0833509F057C08A
:100CE00021C0F801808189830E5F1F4F4424439403
:100CF000512C540114C03801F2E06F0E711CF80140
:100D0000A080B18026FF03C0652D70E002C06FEFA8
:100D10007FEFC5012C8794D22C0183012C852F777E
:100D2000222E16C03801F2E06F0E711CF801A0806F
:100D3000B18026FF03C0652D70E002C06FEF7FEF2A
:100D4000C5012C876BD22C012C852068222E8301B3
:100D500023FC19C0832D90E048165906A0F4B70172
:100D600080E290E078D23A94F5CFF50127FC8591A6
:100D700027FE81915F01B70190E06DD231103A9466
:100D8000F1E04F1A51084114510479F7DEC084365E
:100D900011F0893631F5F80127FF07C060817181B4
:100DA000828193810C5F1F4F08C060817181882709
:100DB00077FD8095982F0E5F1F4F2F76B22E97FFED
:100DC00009C090958095709561957F4F8F4F9F4F8B
:100DD0002068B22E2AE030E0A4016FD2A82EA81815
:100DE00043C0853729F42F7EB22E2AE030E025C09B
:100DF000F22FF97FBF2E8F36C1F018F4883579F0C5
:100E0000ADC0803719F0883721F0A8C02F2F20619E
:100E1000B22EB4FE0DC08B2D8460B82E09C024FF05
:100E20000AC09F2F9660B92E06C028E030E005C0AA
:100E300020E130E002C020E132E0F801B7FE07C057
:100E400060817181828193810C5F1F4F06C0608138
:100E5000718180E090E00E5F1F4FA4012ED2A82E7A
:100E6000A818FB2DFF77BF2EB6FE0BC02B2D2E7FB3
:100E7000A51450F4B4FE0AC0B2FC08C02B2D2E7E7F
:100E800005C07A2C2B2D03C07A2C01C0752C24FFB1
:100E90000DC0FE01EA0DF11D8081803311F4297E21
:100EA00009C022FF06C07394739404C0822F867811
:100EB00009F0739423FD12C020FF06C05A2C73144E
:100EC00018F4530C5718732C731460F4B70180E2B4
:100ED00090E02C87C0D173942C85F6CF731410F456
:100EE000371801C0312C24FF11C0B70180E390E016
:100EF0002C87B1D12C8522FF16C021FF03C088E5C5
:100F000090E002C088E790E0B7010CC0822F86789D
:100F100051F021FD02C080E201C08BE227FD8DE28D
:100F2000B70190E098D1A51430F4B70180E390E0C8
:100F300092D15A94F8CFAA94F401EA0DF11D808160
:100F4000B70190E088D1A110F6CF332009F45DCE2F
:100F5000B70180E290E07FD13A94F7CFF701868124
:100F6000978102C08FEF9FEF2C960FB6F894DEBFEB
:100F70000FBECDBFDF91CF911F910F91FF90EF90EA
:100F8000DF90CF90BF90AF909F908F907F906F90A9
:100F90005F904F903F902F9008950F931F93CF93A2
:100FA000DF93869F8001879F100D969F100D11245F
:100FB000C8010DD0EC01009721F0A80160E070E0BD
:100FC00038D1CE01DF91CF911F910F910895CF932A
:100FD000DF938230910510F482E090E0E091A60268
:100FE000F091A70220E030E0A0E0B0E0309739F1C6
:100FF0004081518148175907B8F04817590771F4D3
:1010000082819381109729F013969C938E93129767
:101010002CC09093A7028093A60227C0211531050A
:1010200031F04217530718F0A901DB0101C0EF01AD
:101030009A01BD01DF010280F381E02DD7CF211598
:101040003105F9F0281B390B2430310580F48A81F1
:101050009B816115710521F0FB019383828304C09C
:101060009093A7028093A602FE01329644C0FE012F
:10107000E20FF31F81939193225031093983288322
:101080003AC02091A4023091A502232B41F4209173
:101090000202309103023093A5022093A402209112
:1010A0000002309101022115310541F42DB73EB700
:1010B0004091040250910502241B350BE091A402DB
:1010C000F091A502E217F307A0F42E1B3F0B28179F
:1010D000390778F0AC014E5F5F4F2417350748F0B1
:1010E0004E0F5F1F5093A5024093A40281939193EA
:1010F00002C0E0E0F0E0CF01DF91CF910895CF93FF
:10110000DF93009709F487C0FC01329713821282A3
:10111000C091A602D091A702209781F4208131814D
:10112000280F391F8091A4029091A502821793077E
:1011300079F5F093A502E093A4026DC0DE0120E0F2
:1011400030E0AE17BF0750F412964D915C911397A3
:101150009D014115510509F1DA01F3CFB383A28353
:1011600040815181840F951F8A179B0771F48D91DF
:101170009C911197840F951F0296918380831296FC
:101180008D919C911397938382832115310529F4C6
:10119000F093A702E093A6023EC0D9011396FC93F8
:1011A000EE9312974D915D91A40FB51FEA17FB07BF
:1011B00079F480819181840F951F0296D90111964F
:1011C0009C938E938281938113969C938E93129716
:1011D000E0E0F0E08A819B81009719F0FE01EC01CC
:1011E000F9CFCE01029628813981820F931F209179
:1011F000A4023091A5022817390769F4309729F421
:101200001092A7021092A60202C013821282D093FB
:10121000A502C093A402DF91CF910895FC0105902F
:10122000615070400110D8F7809590958E0F9F1FE8
:101230000895DC0101C06D9341505040E0F70895DE
:10124000FC016150704001900110D8F78095909595
:101250008E0F9F1F08950F931F93CF93DF93182F27
:10126000092FEB018B8181FD03C08FEF9FEF20C021
:1012700082FF10C04E815F812C813D814217530750
:101280007CF4E881F9819F012F5F3F4F39832883E8
:10129000108306C0E885F985812F1995892B29F7D8
:1012A0002E813F812F5F3F4F3F832E83812F902FD1
:1012B000DF91CF911F910F910895FA01AA2728304D
:1012C00051F1203181F1E8946F936E7F6E5F7F4F13
:1012D0008F4F9F4FAF4FB1E03ED0B4E03CD0670F8F
:1012E000781F891F9A1FA11D680F791F8A1F911DE2
:1012F000A11D6A0F711D811D911DA11D20D009F432
:1013000068943F912AE0269F11243019305D319373
:10131000DEF6CF010895462F4770405D4193B3E05C
:101320000FD0C9F7F6CF462F4F70405D4A3318F003
:10133000495D31FD4052419302D0A9F7EACFB4E0B4
:10134000A6959795879577956795BA95C9F700976C
:101350006105710508959B01AC010A2E069457950D
:10136000479537952795BA95C9F7620F731F841F64
:0A137000951FA01D0895F894FFCF0B
:10137A000000A8022000F8466F756E64206A6F7933
:10138A00005541525420736574757020646F6E6500
:10139A000043414E20736574757020646F6E65005A
:1013AA0050574D20736574757020646F6E650041E7
:1013BA00444320736574757020646F6E65004D6FC9
:1013CA00746F7220736574757020646F6E65004463
:1013DA00414320736574757020646F6E6500496EB1
:1013EA00697469616C697A6174696F6E20646F6E81
:1013FA006500426C75726600456E636F6465723A89
:06140A002025640A000029
:00000001FF
