:1000000084C10000A2C10000A0C100009EC1000088
:100010009CC100009AC1000098C1000096C1000078
:1000200094C1000092C1000090C100008EC1000088
:100030008CC100008AC1000088C1000086C1000098
:1000400084C1000082C1000080C100007EC10000A8
:100050007CC100007AC1000078C1000076C10000B8
:1000600074C1000072C1000070C100006EC10000C8
:100070006CC100006AC1000068C1000066C10000D8
:1000800064C1000062C1000060C100005EC10000E8
:100090005CC100005AC1000058C10000C9C5000081
:1000A00054C1000052C1000050C100004EC1000008
:1000B0004CC100004AC1000048C1000046C1000018
:1000C00044C1000042C1000040C100003EC1000028
:1000D0003CC100003AC1000038C1000036C1000038
:1000E00034C1000034068606860686068606860625
:1000F00086068606340686068606860686068606F2
:1001000086068606360686068606860686068606DF
:10011000860686068606860686068606860686067F
:1001200086068606360686068606860686068606BF
:10013000860686068606860686068606860686065F
:100140008606860682068606860686068606860653
:10015000860686065F068606860686068606860666
:10016000860686068606860686068606860686062F
:100170008606860653068606860686068606860652
:1001800086068606710607634236B79BD8A71A39DA
:10019000685618AEBAAB558C1D3CB7CC5763BD6DD5
:1001A000EDFD753EF6177231BF000000803F08007C
:1001B0000000BE922449123EABAAAA2ABECDCCCCE6
:1001C0004C3E00000080BEABAAAAAA3E0000000080
:1001D000BF000000803F0000000000084178D3BB52
:1001E0004387D1133D190E3CC3BD4282AD2B3E68FF
:1001F000EC8276BED98FE1A93E4C80EFFFBE01C4F0
:10020000FF7F3F00000000006E616E00696E6600B7
:1002100000407A10F35A00A0724E18090010A5D4BD
:10022000E80000E87648170000E40B54020000CA1A
:100230009A3B000000E1F505000080969800000060
:1002400040420F000000A0860100000010270000BF
:100250000000E803000000006400000000000A0045
:10026000000000000100000000002C76D888DC6748
:100270004F0823DFC1DFAE59E1B1B796E5E3E453A0
:10028000C63AE651997696E8E6C28426EB898C9BBD
:1002900062ED407C6FFCEFBC9C9F40F2BAA56FA55D
:1002A000F490055A2AF75C936B6CF9676DC11BFCDF
:1002B000E0E40D47FEF520E6B500D0ED902E0300FA
:1002C000943577050080841E080000204E0A000047
:1002D00000C80C333333330F986E12831141EF8D06
:1002E0002114893BE65516CFFEE6DB18D1844B3846
:1002F0001BF77C1D901DA4BBE424203284725E2277
:100300008100C9F124ECA1E53D2711241FBECFEFE8
:10031000D1E2DEBFCDBF00E00CBF12E0A0E0B2E052
:10032000EEEAF5E200E00BBF02C007900D92A23B9F
:10033000B107D9F722E0A2EBB2E001C01D92A13EC5
:10034000B207E1F76BD60C94D5125ACEEF92FF921A
:100350000F931F936093CE027093CF028093D002CD
:100360009093D1022093C2023093C3024093C402FF
:100370005093C502E092BA02F092BB020093BC0215
:100380001093BD021092BE021092BF021092C002E2
:100390001092C1021092CA021092CB021092CC02AB
:1003A0001092CD021092C6021092C7021092C8029B
:1003B0001092C9021F910F91FF90EF9008954F92F4
:1003C0005F926F927F928F929F92AF92BF92CF92E5
:1003D000DF92EF92FF920F931F9327013801A7D668
:1003E0006B017C01A30192010E94230A2091CA02A1
:1003F0003091CB024091CC025091CD0299D64B0165
:100400005C016093CA027093CB028093CC029093FC
:10041000CD022091C6023091C7024091C80250918E
:10042000C902C701B60183D6A3019201E5D62B010B
:100430003C01C092C602D092C702E092C802F0927C
:10044000C9022091CE023091CF024091D00250914A
:10045000D102C701B601F7D76B017C012091C2021E
:100460003091C3024091C4025091C502C501B4014C
:10047000EAD79B01AC01C701B6015AD66B017C01DA
:100480002091BA023091BB024091BC025091BD0252
:10049000C301B201D8D79B01AC01C701B60148D650
:1004A0001F910F91FF90EF90DF90CF90BF90AF9092
:1004B0009F908F907F906F905F904F900895CF9313
:1004C000DF938DE790E0B4D4E3D4EC0187EA91E6C2
:1004D0000197F1F700C00000DBD4C817D907A1F7D6
:1004E00080E090E0A5D48FD49FE32DE083E091508D
:1004F00020408040E1F700C0000083E89FEF98D4DF
:10050000C7D4EC0187EA91E60197F1F700C000003B
:10051000BFD4C817D907A1F780E090E089D4CE01F5
:10052000DF91CF91089549D34FEF64E680E62DD354
:100530004FEF64E680E729D34FEF63E08EE225D3E7
:1005400040E060EE8FE021C308958F929F92AF92BA
:10055000BF92CF92DF92EF92FF920F931F93CF93B0
:10056000DF93CDB7DEB72B970FB6F894DEBF0FBE83
:10057000CDBF6C01162F81E0860FE7D2A82E82E056
:10058000810FE3D2829586958770B12CAA0CBB1C93
:10059000AA0CBB1CAA0CBB1CA82A85E0810FD5D2D3
:1005A0008F70882EA1F00F2EF6E09F2EF02D910E69
:1005B0008E010C5F1F4F7801E80EF11C892DC5D20A
:1005C000F80181938F019394EE15FF05B9F740E090
:1005D00061E08CE2DAD2BA82A9828B828BE0FE01E2
:1005E0003196D60101900D928A95E1F7C6012B96BE
:1005F0000FB6F894DEBF0FBECDBFDF91CF911F9134
:100600000F91FF90EF90DF90CF90BF90AF909F90B1
:100610008F900895CF93DF93CDB7DEB72B970FB6AA
:10062000F894DEBF0FBECDBF442361F0A22FB32FDD
:10063000FE0134969F01240F311D5D915193E21705
:10064000F307D9F77A8369834B832BE0FE01319658
:10065000DC0101900D922A95E1F72B960FB6F894E4
:10066000DEBF0FBECDBFDF91CF910895CF92DF9255
:10067000EF92FF920F931F93CF93DF93CDB7DEB727
:100680002B970FB6F894DEBF0FBECDBFE982FA827A
:100690000B831C832D833E834F83588769877A871A
:1006A0008B87E980FA808C2D50D283FDFCCFB70177
:1006B00076956795769567957695679581E08C0D2B
:1006C00050D26E2D6295660F607E82E08C0D49D20D
:1006D000602F6F7085E08C0D44D20023B1F07E0155
:1006E00084E0E80EF11C0F2EF6E0DF2EF02DDC0C7E
:1006F000F701E00FF11D8F01F70161917F018D2D51
:1007000030D2D394E016F106B9F78C2D82958F7014
:1007100082584FD22B960FB6F894DEBF0FBECDBFD6
:10072000DF91CF911F910F91FF90EF90DF90CF90CD
:10073000089580B18CE209D280FF06C04FEF61E0DE
:100740008CE223D290E609C0982F927081FF05C0F9
:100750004FEF62E08CE219D290E7892F0895EF9273
:10076000FF920F931F93CF93DF93CDB7DEB72B97F5
:100770000FB6F894DEBF0FBECDBFE982FA820B83BD
:100780001C832D833E834F83588769877A878B87A5
:10079000112311F0129801C0129A2B960FB6F894FB
:1007A000DEBF0FBECDBFDF91CF911F910F91FF90A4
:1007B000EF9008958F929F92AF92BF92CF92DF9267
:1007C000EF92FF920F931F93CF93DF93CDB7DEB7D6
:1007D0002B970FB6F894DEBF0FBECDBF6FEF70E062
:1007E000611B7109882777FD8095982FA0D54B0153
:1007F0005C01B60180E090E098D520E030E04FE762
:1008000053E4FAD49B01AC01C501B4011CD64B01E1
:100810005C013ED3BC01882777FD8095982F87D552
:100820009B01AC011AE0E12E17EDF12E03E21CE36F
:10083000C501B401C4DD4B015C0196012F5F3F4F40
:10084000A1E8B0E80E94780F880F892F881F990BC4
:100850009195BC0180E090E068D59B01AC01C50199
:10086000B401CAD431D5CB01E3D22B960FB6F8949C
:10087000DEBF0FBECDBFDF91CF911F910F91FF90D3
:10088000EF90DF90CF90BF90AF909F908F900895A2
:100890003F924F925F926F927F928F929F92AF9210
:1008A000BF92CF92DF92EF92FF920F931F93CF935D
:1008B000DF93CDB7DEB72B970FB6F894DEBF0FBE30
:1008C000CDBF722E032FB42E352E70E07195619539
:1008D0007109882777FD8095982F29D59B01AC0158
:1008E00060E070E080E291E411D66B017C016B2D39
:1008F00070E0719561957109882777FD8095982F33
:1009000016D59B01AC0160E070E080E291E4FED579
:100910004B015C01672D70E0719561957109882725
:1009200077FD8095982F03D59B01AC0160E070E0C6
:1009300080E291E4EBD52B013C01632D70E07195D1
:1009400061957109882777FD8095982FF0D4A701CC
:10095000960179D56B017C01602F70E071956195EE
:100960007109882777FD8095982FE1D4A50194011E
:100970006AD54B015C01612F70E071956195710939
:10098000882777FD8095982FD2D4A30192015BD55B
:1009900087017601A5019401D9DC2B960FB6F89456
:1009A000DEBF0FBECDBFDF91CF911F910F91FF90A2
:1009B000EF90DF90CF90BF90AF909F908F907F90FF
:1009C0006F905F904F903F900895CF92DF92EF929B
:1009D000FF920F931F93CF93DF93CDB7DEB72B9783
:1009E0000FB6F894DEBF0FBECDBFE982FA820B834B
:1009F0001C832D833E834F83588769877A878B8733
:100A000089819A818737910511F120F48535910507
:100A100041F055C08838910539F189399105C1F106
:100A20004EC08FE092E00E9402118C81C82ED12C22
:100A30001F928F9327E032E03F932F930E94F11093
:100A4000C6015ED20F900F900F900F9038C0E980D2
:100A5000FA800B811C812D813E814F8158856985EB
:100A60007A858B857CDE2BC083E192E00E940211A7
:100A700088E8E82E89831A82F12C0B811C812D8154
:100A80003E814F81588569857A858B8593DE17C0B5
:100A900089E192E09F938F930E94F11089E9E82EFB
:100AA00089831A82F12C0B811C812D813E814F811B
:100AB000588569857A858B85EBDE0F900F902B9694
:100AC0000FB6F894DEBF0FBECDBFDF91CF911F915F
:100AD0000F91FF90EF90DF90CF900895CF92EF921B
:100AE000FF920F931F93CF93DF93CDB7DEB72C9771
:100AF0000FB6F894DEBF0FBECDBF8C879E01245F7A
:100B00003F4F41E066E670E0CE01019683DD0F2E97
:100B1000F0E3CF2EF02DE980FA800B811C812D812E
:100B20003E814F81588569857A858B859FDD2C961E
:100B30000FB6F894DEBF0FBECDBFDF91CF911F91EE
:100B40000F91FF90EF90CF900895CF93C82F2898E2
:100B500083E03CD08C2F3AD080E038D0289ACF91D7
:100B60000895CF93DF93D82FC62F289882E02ED0F8
:100B70008D2F2CD08C2F2AD0289ADF91CF910895D9
:100B8000289880EC23D0289A08951F93CF93DF9361
:100B9000182FD62FC42F289885E018D0812F16D073
:100BA0008D2F14D08C2F12D0289ADF91CF911F91C6
:100BB000089528980BD0289A089502D0E1CF08957F
:100BC00087E084B9239881E58CBD08958EBD0DB46E
:100BD00007FEFDCF8EB508958CE08093B8008FEFAF
:100BE0008093BB0084E08093BC000895ECEBF0E0C0
:100BF000208120FDFDCF6093B402FC012081209371
:100C0000B50220FD0CC0623050F0DC011196E6EB1D
:100C1000F2E081E09D9191938F5F8613FBCF10925C
:100C2000B30288EF8093060285EA8093BC000895A2
:100C30001F920F920FB60F9211240BB60F922F93A3
:100C40003F938F939F93AF93BF93EF93FF938091C5
:100C5000B90090E0FC013897E135F10508F056C085
:100C6000EE58FF4F0C94720F1092B202E091B20254
:100C70008091B402E81770F481E08E0F8093B20285
:100C8000F0E0EB54FD4F80818093BB0085E88093BA
:100C9000BC0043C08091B30281608093B30284E9B9
:100CA0008093BC003AC0E091B20281E08E0F809345
:100CB000B2028091BB00F0E0EB54FD4F80832091A5
:100CC000B20230E08091B40290E001972817390712
:100CD00024F485EC8093BC0020C085E88093BC00A0
:100CE0001CC08091BB00E091B202F0E0EB54FD4FDC
:100CF00080838091B30281608093B30284E9809302
:100D0000BC000BC085EA8093BC0007C08091B9008D
:100D10008093060284E08093BC00FF91EF91BF9125
:100D2000AF919F918F913F912F910F900BBE0F909C
:100D30000FBE0F901F9018959093C5008093C4002C
:100D4000E1ECF0E0808188618083E2ECF0E080817A
:100D5000866080830895E0ECF0E0908195FFFDCF00
:100D60008093C6000895E0ECF0E080818823ECF7E2
:100D70008091C6000895EAE7F0E08081876880836B
:100D8000ECE7F0E080818064808380818F778083CE
:100D90000895ECE7F0E0908121E030E002C0220FFE
:100DA000331F8A95E2F72370922B9083EAE7F0E0F5
:100DB000808180648083808186FDFDCF8091780072
:100DC000909179000895CF93C82F06DF7894C0934F
:100DD000B902CF910895CF93DF9300D0CDB7DEB79E
:100DE0009091B9029770990F9065998387708A8363
:100DF0006B8363E0CE010196F9DE0F900F900F90A8
:100E0000DF91CF9108958E988AE68A95F1F700C018
:100E10008E9A089580B3886F80BB109207018C9AD8
:100E2000F2CF0895892B11F08B9808958B9A08952D
:100E3000CF93DF93EC011816190624F480E090E0BC
:100E4000F1DF08C081E090E0EDDFDD231CF4D195F7
:100E5000C195D109BE01CF3FD10519F014F06FEF54
:100E600070E080E0B8DFDF91CF910895282F2575DD
:100E7000220F982F9A7A9695922B292F2373220F5F
:100E8000220F892F8C7C86958695822B82950895DA
:100E9000CF93DF9381B38F7581BB2AE62A95F1F753
:100EA00000C080910601E2DFC82FD0E0DC2FCC2704
:100EB0008D9A3AE63A95F1F700C080910601D6DFA7
:100EC0008F9A9E01280F311DC901DF91CF9108959E
:100ED0006B9AE0E9F0E080818E7B8083808182687C
:100EE0008083E1E9F0E080818D61808380818D7F66
:100EF000808388E391E09093970080939600089513
:100F000043E1489F9001499F300D1124A1E8B0E8CA
:100F1000EFD7880F892F881F990B91959C012B5033
:100F200031092330310538F489E190E0909399003C
:100F30008093980008958931910530F40D9690932F
:100F4000990080939800089589E190E0909399002A
:100F5000809398000895CF93DF9300D01F921F9243
:100F6000CDB7DEB719821B821A821C8285E0FE0192
:100F70003196A2EDB2E001900D928A95E1F70F90C3
:100F80000F900F900F900F90DF91CF910895CF9316
:100F9000DF93E3EDF2E020813181280F311D3183B1
:100FA0002083E2EDF2E080818F5F80838431D1F491
:100FB000ADECBCEC9DD7929582958F7089279F7080
:100FC00089279093D4028093D30221E02093D20208
:100FD000C29720F481E08093D60204C01092D5021B
:100FE0001092D6028091D502811114C08091D60250
:100FF000882381F0C5EDD2E081E088838093D6021A
:1010000081E292E09F938F930E94F110888166DDC8
:101010000F900F9080E0DF91CF910895CF93DF93F1
:10102000CDB7DEB72B970FB6F894DEBF0FBECDBF9E
:10103000789487E690E080DE63EB76E08BEA96E0DA
:101040000E9475108CE292E00E9402116CDA8CE32F
:1010500092E00E9402113CDF8BE492E00E940211B8
:101060008ADE8AE592E00E940211D4DE89E692E0EF
:101070000E94021187E0A7DE8AE792E00E94021137
:1010800053D089E892E00E9402118DE992E00E941B
:10109000021161DF49D0E12CF12C00E010E820E0E2
:1010A00030E040EC5FEB63E373E383E39FEB4ED907
:1010B00080B38E6F80BBFE0131968BE0DF011D9205
:1010C0008A95E9F7FCD94C010F2EFBE0AF2EF2E038
:1010D000BF2EF02D2EDB882321F0682FCE01019644
:1010E00034DA6401E980FA800B811C812D813E8114
:1010F0004F81588569857A858B8567DC80E049DE7C
:101100009F938F93BF92AF920E94F11080E041DED7
:101110003EDF8FE39CE90197F1F700C000000F90DC
:101120000F900F900F90D6CF0A9A129A08955058A8
:10113000BB27AA270ED04DC13ED130F043D120F0BD
:1011400031F49F3F11F41EF433C10EF4E095E7FB38
:1011500029C1E92F4FD180F3BA17620773078407BB
:10116000950718F071F49EF567C10EF4E0950B2E0B
:10117000BA2FA02D0B01B90190010C01CA01A001E9
:101180001124FF27591B99F0593F50F4503E68F144
:101190001A16F040A22F232F342F4427585FF3CF85
:1011A000469537952795A795F0405395C9F77EF456
:1011B0001F16BA0B620B730B840BBAF09150A1F09F
:1011C000FF0FBB1F661F771F881FC2F70EC0BA0F25
:1011D000621F731F841F48F4879577956795B795AD
:1011E000F7959E3F08F0B3CF9395880F08F09927A5
:1011F000EE0F9795879508950CD0EBC0E3D040F0A3
:10120000DAD030F021F45F3F19F0CCC0511115C194
:10121000CFC0F0D098F39923C9F35523B1F3951BB0
:10122000550BBB27AA2762177307840738F09F5F07
:101230005F4F220F331F441FAA1FA9F333D00E2E76
:101240003AF0E0E830D091505040E695001CCAF7E3
:1012500029D0FE2F27D0660F771F881FBB1F2617A8
:1012600037074807AB07B0E809F0BB0B802DBF017B
:10127000FF2793585F4F2AF09E3F510568F092C0B8
:10128000DCC05F3FECF3983EDCF38695779567957D
:10129000B795F7959F5FC9F7880F911D969587952C
:1012A00097F90895E1E0660F771F881FBB1F62174B
:1012B00073078407BA0720F0621B730B840BBA0B09
:1012C000EE1F88F7E095089504D06894B111B5C079
:1012D000089598D088F09F5790F0B92F9927B7516B
:1012E000A0F0D1F0660F771F881F991F1AF0BA95EA
:1012F000C9F712C0B13081F09FD0B1E008959CC011
:10130000672F782F8827B85F39F0B93FCCF38695DF
:1013100077956795B395D9F73EF49095809570953C
:1013200061957F4F8F4F9F4F0895E89409C097FBB9
:101330003EF490958095709561957F4F8F4F9F4FAC
:101340009923A9F0F92F96E9BB279395F6958795F0
:1013500077956795B795F111F8CFFAF4BB0F11F4B3
:1013600060FF1BC06F5F7F4F8F4F9F4F16C088235A
:1013700011F096E911C0772321F09EE8872F762F90
:1013800005C0662371F096E8862F70E060E02AF0D1
:101390009A95660F771F881FDAF7880F96958795BD
:1013A00097F9089597F99F6780E870E060E00895E5
:1013B0009FEF80EC089500240A941616170618066D
:1013C0000906089500240A94121613061406050649
:1013D0000895092E0394000C11F4882352F0BB0FDA
:1013E00040F4BF2B11F460FF04C06F5F7F4F8F4F3D
:1013F0009F4F089557FD9058440F551F59F05F3F78
:1014000071F04795880F97FB991F61F09F3F79F026
:1014100087950895121613061406551FF2CF4695A8
:10142000F1DF08C0161617061806991FF1CF86952A
:101430007105610508940895E894BB27662777270E
:10144000CB0197F908950BD0C4CFB5DF28F0BADFF0
:1014500018F0952309F0A6CFABCF1124EECFCADF49
:10146000A0F3959FD1F3950F50E0551F629FF001B7
:10147000729FBB27F00DB11D639FAA27F00DB11D10
:10148000AA1F649F6627B00DA11D661F829F222799
:10149000B00DA11D621F739FB00DA11D621F839F20
:1014A000A00D611D221F749F3327A00D611D231FF6
:1014B000849F600D211D822F762F6A2F11249F5744
:1014C00050408AF0E1F088234AF0EE0FFF1FBB1F67
:1014D000661F771F881F91505040A9F79E3F510506
:1014E00070F060CFAACF5F3FECF3983EDCF38695B7
:1014F00077956795B795F795E7959F5FC1F7FE2BB1
:10150000880F911D9695879597F90895FA01EE0F2A
:10151000FF1F30962105310599F16115710561F4C0
:101520008038BFE39B0749F168949038810561F0EA
:101530008038BFEF9B0741F0992342F5FF3FE1055B
:101540003105210511F1E8940894E795D901AA2302
:1015500029F4AB2FBE2FF85FD0F310C0FF5F70F4FB
:10156000A695E0F7F73950F019F0FF3A38F49F7775
:101570009F930CD00F9007FC905808953EF018CF21
:1015800060E070E080E89FE308954FE79F775F9306
:101590004F933F932F939ED02F913F914F915F9107
:1015A00052DF05C019F40EF0FDCE46CF01CF2ADF81
:1015B000C8F39638C0F707F80F92E8942BE33AEA9D
:1015C00048EB5FE74EDF0F920F920F924DB75EB779
:1015D0000F92C0D0E6E8F1E016D04F915F91EF9105
:1015E000FF91E595EE1FFF1F49F0FE57E068442785
:1015F000EE0F441FFA95E1F74195550B32D00F904D
:1016000007FE26C00895DF93CF931F930F93FF9299
:10161000EF92DF927B018C01689405C0DA2EEF0116
:101620001EDFFE01E894A5912591359145915591D4
:10163000AEF3EF018EDDFE019701A801DA9479F790
:10164000DF90EF90FF900F911F91CF91DF91089560
:101650009B01AC0160E070E080E89FE3CDCDA2CEBD
:10166000ACC0D0DEE8F39923D9F3940F511DBBF33E
:101670009150504094F059F0882332F0660F771F54
:10168000881F91505040C1F79E3F510544F7880F85
:10169000911D9695879597F908955F3FACF0983E18
:1016A0009CF0BB27869577956795B79508F4B16050
:1016B0009395C1F7BB0F58F711F460FFE8CF6F5F48
:1016C0007F4F8F4F9F4FE3CFB8CE0EF076C070CED6
:1016D000689468CE97DEC8F39923D1F3C6F3DF93FD
:1016E000CF931F930F93FF92C92FDD2788232AF0F2
:1016F0002197660F771F881FDAF720E030E040E877
:101700005FEB9FE3883920F0803E30F021968F77A1
:101710000FDDEEEAF1E003C00BDDEBEDF1E073DF8E
:101720008B01BE01EC01FB2E6F5771097595771F78
:10173000880B990BFCDD28E132E741E35FE38FDEA4
:10174000AF2D9801AE01FF900F911F91CF91DF91C6
:1017500000DD3FCEFA01DC01AA0FBB1F9B01AC01EB
:10176000BF5728F422273327442750781FC0B7518A
:1017700088F4AB2F0024469537952795011CA39537
:10178000D2F3002069F0220F331F441FB395DAF320
:101790000DD0CDCC61307105A0E88A07B94630F490
:1017A0009B01AC016627772788279078309621F037
:1017B000208331834283538308959F3F31F09150BA
:1017C00020F4879577956795B795880F911D969525
:1017D000879597F908952F923F924F925F926F925B
:1017E0007F928F929F92AF92BF92CF92DF92EF92B1
:1017F000FF920F931F93CF93DF93CDB7DEB763971D
:101800000FB6F894DEBF0FBECDBF7C011B016A018D
:10181000FC0117821682838181FF49C3BE016F5F7D
:101820007F4F4B01F7019381F10193FD859193FF68
:1018300081911F01882309F436C3853239F493FD61
:10184000859193FF81911F01853231F4B70190E0BA
:1018500096D456016501E6CF10E0512C20E02032ED
:10186000A0F48B3269F030F4803259F0833269F49D
:1018700020612CC08D3239F0803339F4216026C0CC
:101880002260246023C0286021C027FD27C030EDDE
:10189000380F3A3078F426FF06C0FAE01F9F300D6B
:1018A0001124132F13C06AE0569E300D1124532EBD
:1018B00020620CC08E3221F426FDF5C2206406C0E1
:1018C0008C3611F4206802C0883641F4F10193FD92
:1018D000859193FF81911F018111C1CF9BEB980FDF
:1018E000933018F42061805E06C09BE9980F933016
:1018F00008F09AC12F7E26FF16E02F73722E8536D0
:1019000021F4F22FF0647F2E08C0863621F4622F76
:101910006068762E02C01111115077FE07C01C338B
:1019200048F444244394410E27E00BC0183030F4AF
:10193000212F06C027E04CE3442E03C027E017E028
:10194000412C560174E0A70EB11CF6016081718133
:1019500082819381042DA401DAD26C01098100FFF8
:1019600002C003FF06C071FC07C072FC08C0612CF6
:1019700008C03DE2632E05C02BE2622E02C090E259
:10198000692E802F8C7081F1662011F084E001C0F7
:1019900083E0851510F0512C0AC0581A73FC07C05B
:1019A000B70180E290E0EBD35A94D1F7F4CF6620F0
:1019B00021F0B701862D90E0E2D303FD03C00CE0D7
:1019C00012E002C008E012E0F72DF0717F2EF8015E
:1019D0008491882309F45EC271108052B70190E0AF
:1019E000CED30F5F1F4FF3CF77FE0FC04C0C04FF19
:1019F00004C08A81813309F44A94141474F5F8E020
:101A0000F41578F588E0482E2CC076FC2AC0812F8A
:101A100090E08C159D059CF06CEFC6166FEFD60616
:101A200074F0772D7068772E0AC0E2E0F0E0EC0FDA
:101A3000FD1FE10FF11D8081803319F41150111148
:101A4000F4CF77FE0EC044244394410E812F90E0E2
:101A5000C816D9062CF41C1904C04424439401C0B0
:101A600010E077FE07C01C141D043CF496012F5FA4
:101A70003F4F05C025E030E002C021E030E06620A5
:101A800011F02F5F3F4F112331F0412F50E04F5F96
:101A90005F4F240F351F452D50E02417350714F4F0
:101AA000521A01C0512C872D897041F4552031F014
:101AB000B70180E290E063D35A94F8CF662021F01A
:101AC000B701862D90E05BD373FC08C0552031F040
:101AD000B70180E390E053D35A94F8CF77FE5DC00E
:101AE0009C2D8D2DD7FE02C090E080E0692E782ECF
:101AF00040E050E0C601841991099D878C879601CA
:101B000026193709280D391D812F90E0EE27FF2770
:101B1000E81BF90BFF87EE87FFEF6F167F0661F476
:101B2000B7018EE290E02B8B3A8B488B598B27D3F1
:101B3000598948893A892B89C614D70454F06C8591
:101B40007D85661577052CF4F901E40FF51F818179
:101B500001C080E371E0671A71084F5F5F4FEE8547
:101B6000FF856E167F0664F0B70190E02B8B3A8BF1
:101B7000488B598B04D32B893A8948895989CCCF12
:101B80006C147D0439F49A81963318F4953311F46A
:101B900004FF81E3B70190E045C08A81813309F0F9
:101BA0000F7EB70190E0EBD2111105C074FE16C094
:101BB00085E490E015C0B7018EE290E0E0D282E0CB
:101BC00066246394680EF401E80FF11D8081B7016B
:101BD00090E0D5D2115051F3862DF2CF85E690E0FA
:101BE000B701CDD2D7FC05C0C114D10439F404FF2C
:101BF00005C0D194C194D1088DE201C08BE2B70138
:101C000090E0BDD280E36AE0C616D1042CF08F5F6D
:101C1000FAE0CF1AD108F7CFB70190E0B0D2B70100
:101C2000C601C096ACD236C1833631F0833779F025
:101C3000833509F054C020C0560172E0A70EB11CD4
:101C4000F6018081898301E010E0640113C0560130
:101C5000F2E0AF0EB11CF601C080D18026FF03C0B8
:101C6000612F70E002C06FEF7FEFC6012B8B32D285
:101C70008C012B892F7714C05601F2E0AF0EB11CF6
:101C8000F601C080D18026FF03C0612F70E002C042
:101C90006FEF7FEFC6012B8B12D28C012B8920684E
:101CA000722E23FD18C0852D90E00817190798F4AF
:101CB000B70180E290E063D25A94F5CFF60177FC49
:101CC000859177FE81916F01B70190E058D2511054
:101CD0005A94015011090115110581F7DBC08436B2
:101CE00011F0893649F5560127FF09C0F4E0AF0E1F
:101CF000B11CF60160817181828193810AC0F2E09A
:101D0000AF0EB11CF60160817181882777FD809547
:101D1000982F022F0F7697FF08C0909580957095A9
:101D200061957F4F8F4F9F4F00682AE030E0A401FC
:101D300096D2C82EC8183DC0022F853721F40F7ED9
:101D40002AE030E01DC0097F8F3691F018F4883505
:101D500059F0A9C0803719F0883711F0A4C000618C
:101D600004FF09C0046007C024FF08C0066006C065
:101D700028E030E005C020E130E002C020E132E0A0
:101D8000560107FF09C0F4E0AF0EB11CF6016081F7
:101D900071818281938108C0F2E0AF0EB11CF6011F
:101DA0006081718180E090E0A40159D2C82EC818EA
:101DB0000F7706FF0BC0202F2E7FC11650F404FFB3
:101DC0000AC002FD08C0202F2E7E05C0DC2C202F6B
:101DD00003C0DC2C01C0D12E24FF0DC0FE01EC0D90
:101DE000F11D8081803311F4297E09C022FF06C0D5
:101DF000D394D39404C0822F867809F0D39423FD22
:101E000012C020FF06C01C2DD51418F4150D1D1985
:101E1000D52CD51460F4B70180E290E02B8BAFD1C4
:101E2000D3942B89F6CFD51410F45D1801C0512C32
:101E300024FF11C0B70180E390E02B8BA0D12B8948
:101E400022FF16C021FF03C088E590E002C088E7AA
:101E500090E0B7010CC0822F867851F021FD02C0BE
:101E600080E201C08BE227FD8DE2B70190E087D1CF
:101E7000C11630F4B70180E390E081D11150F8CF62
:101E8000CA94F401EC0DF11D8081B70190E077D187
:101E9000C110F6CF552009F4DDCCB70180E290E007
:101EA0006ED15A94F7CFF7018681978102C08FEFE8
:101EB0009FEF63960FB6F894DEBF0FBECDBFDF91E4
:101EC000CF911F910F91FF90EF90DF90CF90BF9037
:101ED000AF909F908F907F906F905F904F903F90CA
:101EE0002F900895EE0FFF1F0590F491E02D1994A7
:101EF000A29FB001B39FC001A39F700D811D11244B
:101F0000911DB29F700D811D1124911D08952830DF
:101F100008F027E03327DA01990F311D87FD916022
:101F200000966105710539F432602E5F3D9330E310
:101F30002A95E1F708959F3F30F0803871056105DB
:101F400009F03C5F3C5F3D93913008F08068911D43
:101F5000DF93CF931F930F93FF92EF92192F987FE8
:101F60009695E92F96959695E90FFF27E659FD4F2F
:101F700099273327EE24FF24A701E7010590089451
:101F8000079428F4360FE71EF81E491F511D660FEF
:101F9000771F881F991F0694A1F70590079428F4CE
:101FA000E70EF81E491F561FC11D770F881F991F86
:101FB000661F0694A1F70590079428F4F80E491FB0
:101FC000561FC71FD11D880F991F661F771F0694C4
:101FD000A1F70590079420F4490F561FC71FD81F7B
:101FE000990F661F771F881F0694A9F78491109593
:101FF000177041F0D695C79557954795F794E79494
:102000001A95C1F7E0E1F2E06894159015913591C9
:102010006591959105907FE27395E118F10A430B64
:10202000560BC90BD009C0F7E10CF11E431F561F18
:10203000C91FD01D7EF4703311F48A95E6CFE89461
:10204000015030F0080F0AF40027021708F4202F7F
:102050002395022F7A3328F079E37D932A95E9F7C7
:1020600010C07D932A9589F60694979567953795C4
:1020700017951794E118F10A430B560BC90BD009B9
:1020800098F023957E9173957A3308F070E37C93F2
:102090002013B8F77E9170617D9330F0839571E3E2
:1020A0007D9370E32A95E1F71124EF90FF900F9153
:1020B0001F91CF91DF91992787FD90950895FC019D
:1020C0000590615070400110D8F7809590958E0F63
:1020D0009F1F0895FC016150704001900110D8F7D6
:1020E000809590958E0F9F1F08950F931F93CF9308
:1020F000DF93EC018B01009731F46115710519F440
:1021000080E090E037C06EE070E081E090E005D1C3
:10211000FC010097A9F380E883830115110571F094
:102120001387028781E883838091D7029091D80238
:10213000892B21F4F093D802E093D7022097C9F0BD
:10214000D187C0878381826083838091D9029091F7
:10215000DA02892B71F4F093DA02E093D9028091CC
:10216000DB029091DC02892B21F4F093DC02E093F6
:10217000DB02CF01DF91CF911F910F9108950F9353
:102180001F93CF93DF93182F092FEB018B8181FDD4
:1021900003C08FEF9FEF20C082FF10C04E815F8190
:1021A0002C813D81421753077CF4E881F9819F011E
:1021B0002F5F3F4F39832883108306C0E885F98558
:1021C000812F1995892B29F72E813F812F5F3F4F52
:1021D0003F832E83812F902FDF91CF911F910F91FD
:1021E0000895CF93DF93CDB7DEB7FE0136966191A8
:1021F0007191AF018091D9029091DA02ECDADF910E
:10220000CF9108950F931F93CF93DF93E091D9025D
:10221000F091DA02238121FF1BC0EC0100E010E005
:1022200089916091D9027091DA02DB011896ED91E3
:10223000FC911997882331F01995892B89F30FEFB9
:102240001FEFEECF8AE01995892B11F4C80102C067
:102250008FEF9FEFDF91CF911F910F910895FA01BA
:10226000AA27283051F1203181F1E8946F936E7FD5
:102270006E5F7F4F8F4F9F4FAF4FB1E03ED0B4E0C6
:102280003CD0670F781F891F9A1FA11D680F791F07
:102290008A1F911DA11D6A0F711D811D911DA11D18
:1022A00020D009F468943F912AE0269F1124301928
:1022B000305D3193DEF6CF010895462F4770405DC3
:1022C0004193B3E00FD0C9F7F6CF462F4F70405D72
:1022D0004A3318F0495D31FD4052419302D0A9F7CD
:1022E000EACFB4E0A6959795879577956795BA95C7
:1022F000C9F700976105710508959B01AC010A2E8D
:1023000006945795479537952795BA95C9F7620F63
:10231000731F841F951FA01D08950F931F93CF93C4
:10232000DF93869F8001879F100D969F100D1124CB
:10233000C8010DD0EC01009721F0A80160E070E029
:102340002DD1CE01DF91CF911F910F910895CF93A1
:10235000DF938230910510F482E090E0E091DF029B
:10236000F091E00220E030E0A0E0B0E0309739F1F9
:102370004081518148175907B8F04817590771F43F
:1023800082819381109729F013969C938E931297D4
:102390002CC09093E0028093DF0227C02115310505
:1023A00031F04217530718F0A901DB0101C0EF011A
:1023B0009A01BD01DF010280F381E02DD7CF211505
:1023C0003105F9F0281B390B2430310580F48A815E
:1023D0009B816115710521F0FB019383828304C009
:1023E0009093E0028093DF02FE01329644C0FE012A
:1023F000E20FF31F8193919322503109398328838F
:102400003AC02091DD023091DE02232B41F420916D
:102410000202309103023093DE022093DD0220910C
:102420000002309101022115310541F42DB73EB76C
:102430004091040250910502241B350BE091DD020E
:10244000F091DE02E217F307A0F42E1B3F0B2817D2
:10245000390778F0AC014E5F5F4F2417350748F01D
:102460004E0F5F1F5093DE024093DD0281939193E4
:1024700002C0E0E0F0E0CF01DF91CF910895CF936B
:10248000DF93009709F487C0FC0132971382128210
:10249000C091DF02D091E002209781F42081318148
:1024A000280F391F8091DD029091DE028217930779
:1024B00079F5F093DE02E093DD026DC0DE0120E0ED
:1024C00030E0AE17BF0750F412964D915C91139710
:1024D0009D014115510509F1DA01F3CFB383A283C0
:1024E00040815181840F951F8A179B0771F48D914C
:1024F0009C911197840F951F029691838083129669
:102500008D919C911397938382832115310529F432
:10251000F093E002E093DF023EC0D9011396FC93F2
:10252000EE9312974D915D91A40FB51FEA17FB072B
:1025300079F480819181840F951F0296D9011196BB
:102540009C938E938281938113969C938E93129782
:10255000E0E0F0E08A819B81009719F0FE01EC0138
:10256000F9CFCE01029628813981820F931F2091E5
:10257000DD023091DE022817390769F4309729F41B
:102580001092E0021092DF0202C013821282D093F6
:10259000DE02C093DD02DF91CF910895DC0101C01E
:0E25A0006D9341505040E0F70895F894FFCF3E
:1025AE000000E1022000F86A6F792025640A004AD3
:1025BE006F7900536C696465004D6573736167656F
:1025CE000047616D65206C6F73742E005541525437
:1025DE0020736574757020646F6E650043414E20E4
:1025EE00736574757020646F6E650050574D20735F
:1025FE006574757020646F6E650041444320736589
:10260E0074757020646F6E65004D6F746F722073F9
:10261E006574757020646F6E650044414320736568
:10262E0074757020646F6E6500536F6C656E6F69A4
:10263E006420736574757020646F6E6500496E69F1
:10264E007469616C697A6174696F6E20646F6E650E
:02265E0000007A
:00000001FF
