S01700004763634170706C69636174696F6E312E737265635B
S11300000C94B4010C94D1010C94D1010C94D10141
S11300100C94D1010C94D1010C94D1010C94D10114
S11300200C94D1010C94D1010C94D1010C94D10104
S11300300C94D1010C94D1010C94D1010C94D101F4
S11300400C94D1010C94D1010C94D1010C94D101E4
S11300500C94D1010C94D1010C94D1010C94D101D4
S11300600C94D1010C94D1010C94D1010C94D101C4
S1130070000000000000000000065F5F06000000B2
S11300800007070007070000147F7F147F7F140018
S1130090242E6B6B3A120000466630180C66620020
S11300A0307A4F5D377A48000407030000000000EF
S11300B0001C3E63410000000041633E1C00000040
S11300C0082A3E1C1C3E2A0808083E3E0808000078
S11300D000A0E0600000000008080808080800000C
S11300E000006060000000006030180C060301008E
S11300F03E7F594D7F3E000042427F7F40400000DA
S1130100627359496F660000226349497F360000D3
S1130110181C16137F7F1000276745457D390000A2
S11301203C7E4B4979300000036371190F070000CE
S1130130367F49497F360000064F49693F1E00005B
S113014000006C6C0000000000A0EC6C00000000DB
S1130150081C366341000000141414141414000025
S1130160004163361C080000020351590F060000C9
S11301703E7F415D5D1F1E007C7E13137E7C00006C
S1130180417F7F49497F36001C3E63414163220021
S1130190417F7F41637F1C00417F7F495D41630054
S11301A0417F7F491D0103001C3E6341517372006E
S11301B07F7F08087F7F000000417F7F41000000AF
S11301C0307040417F3F0100417F7F081C7763000E
S11301D0417F7F41406070007F7F060C067F7F0077
S11301E07F7F060C187F7F001C3E6341633E1C002A
S11301F0417F7F49090F06001E3F21717F5E000089
S1130200417F7F19396F460026674D597B320000C4
S113021003417F7F410300007F7F40407F7F0000D8
S11302201F3F60603F1F00007F7F3018307F7F00DA
S113023063771C081C776300074F78784F0700002A
S11302406773594D47637100007F7F41410000008F
S11302500103060C183060000041417F7F0000005C
S1130260080C0603060C0800808080808080808053
S11302700000030704000000207454543C7840003C
S1130280413F7F44447C3800387C44446C2800005F
S1130290307848493F7F4000387C54545C18000053
S11302A0487E7F490302000098BCA4A4F87C0400A3
S11302B0417F7F08047C780000447D7D400000007D
S11302C040C484FD7D000000417F7F10386C4400F1
S11302D000417F7F400000007C7C0C180C7C78007F
S11302E07C7C04047C780000387C44447C38000026
S11302F084FCF8A4243C1800183C24A4F8FC8400D2
S1130300447C78441C180000485C54547424000055
S113031000043E7F442400003C7C40403C7C400080
S11303201C3C60603C1C00003C7C6030607C3C00F9
S1130330446C3810386C44009CBCA0A0FC7C0000C9
S11303404C64745C4C64000008083E774141000032
S113035000000077770000004141773E0808000064
S1130360020301030203010011241FBECFEFD4E0F6
S1130370DEBFCDBF12E0A0E0B1E0EEEDF7E102C0D8
S113038005900D92A030B107D9F722E0A0E0B2E0C9
S113039001C01D92AA30B207E1F70E94D3010C9468
S11303A0ED0B0C940000CF93DF93CDB7DEB72C9701
S11303B00FB6F894DEBF0FBECDBF81E090E09C87FE
S11303C08B878FE190E00E94680565E775E081E71F
S11303D095E00E948F088EE091E00E94EE080E9452
S11303E064058EE191E00E94EE08CE0101960E9420
S11303F0CB048EE291E00E94EE080E941C058DE37E
S113040091E00E94EE080E9446029A8789870E9422
S1130410A602CE0101960E942B04AE01475F5F4FF6
S1130420BE01655F7F4FCE0101960E94F002F1CFBD
S1130430CF92DF92EF92FF920F931F93CF93DF93AC
S11304401F92CDB7DEB78C017B0189E090E0498330
S11304500E9468076C01FC0116830583498140836F
S1130460F086E782F9E04F9FC00111240E946807DB
S1130470F60192838183C6010F90DF91CF911F9182
S11304800F91FF90EF90DF90CF900895EF92FF923D
S11304900F931F93CF93DF9342E060E070E081E518
S11304A091E00E941802EC0141E060E070E08BE50D
S11304B091E00E9418028C0141E060E070E08AE65D
S11304C091E00E9418027C0140E06BE475E088E74B
S11304D091E00E941802E981FA8111830083E98185
S11304E0FA81F382E282D8011196ED91FC91129780
S11304F0918380831496DC93CE931397F701D4836E
S1130500C383DC0112961C921E921197CE01DF91D7
S1130510CF911F910F91FF90EF900895CF93C82F23
S113052080E090E00E94F70480E20E94E30480E00F
S113053090E00E94F70480EB8C0F0E94D6040E9486
S1130540D90488E090E0CF910C94F704EF92FF92E5
S11305500F931F93CF93DF93EC010E940E0580E06D
S113056090E00E94F7048E818F938D818F9383E8AE
S113057091E09F938F930E94DA0860E070E08D8190
S11305809E810E94FF040F900F900F900F90E12C1A
S1130590F12C00E010E0888190E008171907B4F40A
S11305A08AE090E00E94F7040F5F1F4FE981FA810F
S11305B0EE0DFF1D0190F081E02DB801858196813B
S11305C00E94FF0482E0E80EF11CE5CF81E090E098
S11305D0DF91CF911F910F91FF90EF900C948E02B9
S11305E0CF92DF92EF92FF920F931F93CF93DF93FB
S11305F01F92CDB7DEB77C016B018A0120E0C701F1
S113060029830E94F8032981882351F0C7010E949D
S1130610F803282FC70129830E942B042981EFCFD7
S1130620223031F118F4213041F0D8C0233009F4DC
S1130630B2C0243009F44FC0D1C0D6018D919C9131
S1130640019709F4CBC08EE891E00E94EE08F60110
S1130650808191810197918380830F90DF91CF9165
S11306601F910F91FF90EF90DF90CF900C948E022A
S113067086E991E00E94EE08D60111968C911197BB
S11306808F938C918F938FE991E09F938F930E9426
S1130690DA08F60180819181D801ED91FC912081E5
S11306A030E00F900F900F900F902817390731F01A
S11306B00196F601918380830E948E028FEA91E075
S11306C00F90DF91CF911F910F91FF90EF90DF90EA
S11306D0CF900C94EE088BEB91E00E94EE08D801C9
S11306E0ED91FC91D6018D919C9181509048880F99
S11306F0991F0180F281E02DE80FF91F0190F0812C
S1130700E02D8081882301F186EC91E00E94EE08BF
S1130710D801ED91FC91D6018D919C918150904826
S1130720880F991F0180F281E02DE80FF91F808165
S11307309181F801918380830E94A60281E090E078
S1130740D6018D939C934AC085ED91E09F938F933E
S11307500E94DA08D801ED91FC91D6018D919C910B
S113076081509048880F991F0180F281E02DE80F95
S1130770F91F0190F081E02D0780F085E02D0F90A6
S11307800F900F90DF91CF911F910F91FF90EF90F9
S1130790DF90CF900994D801ED91FC9183819481ED
S11307A0892BE1F08DED91E00E94EE0881E090E06C
S11307B0F60191838083D801ED91FC911197838197
S11307C094818D939C930F90DF91CF911F910F9102
S11307D0FF90EF90DF90CF900C94A6020F90DF91E2
S11307E0CF911F910F91FF90EF90DF90CF900895DC
S11307F0FC01808191818A3591058CF480819181FD
S1130800873A9F4F74F0828193818A3591055CF415
S113081082819381873A9F4F44F482E0089584E073
S1130820089583E0089581E0089580E0089584E0C8
S11308308093001482E68A95F1F7000080910014F9
S1130840089585E08093001482E68A95F1F700000C
S1130850809100140895CF92DF92EF92FF920F934C
S11308601F93CF93DF93EC010E9417040C811D8129
S1130870682F70E0601B710B882777FD8095982F97
S11308800E94790620E030E048EC52E40E9405071B
S11308906B017C01B801882777FD8095982F0E9411
S11308A079069B01AC0160E070E08FE793E40E945D
S11308B079059B01AC01C701B6010E94DE050E94C7
S11308C04606772767FD7095798368830E94210423
S11308D00E811F81682F70E0601B710B882777FDE4
S11308E08095982F0E94790620E030E048EC52E48D
S11308F00E9405076B017C01B801882777FD80956C
S1130900982F0E9479069B01AC0160E070E08FE7AC
S113091093E40E9479059B01AC01C701B6010E94D2
S1130920DE050E944606772767FD70957B836A8300
S1130930DF91CF911F910F91FF90EF90DF90CF90B7
S11309400895CF93DF93EC010E941704282F30E021
S11309503D832C831F928F9387EE91E09F938F9317
S11309600E94DA080E942104282F30E03F832E835E
S11309701F928F9383EF91E09F938F930E94DA08E5
S11309808DB79EB708960FB6F8949EBF0FBE8DBF65
S1130990DF91CF9108950E94A10487B3887F87BB1C
S11309A088B3876088BB8A98929A089580930010D0
S11309B00895E6E0F1E081918093001281E0EE3049
S11309C0F807C9F7089528E0829FC001112420E0A8
S11309D030E080599040FC01E20FF31FE491E09372
S11309E000122F5F3F4F28303105A9F70895E0E04A
S11309F0F0E191E2908380838FEF80830895CF9319
S1130A00DF93605560930010EC018991882319F0FD
S1130A100E94E304FACFDF91CF91089520EB209355
S1130A20001080E890E01092001201970097D9F727
S1130A302F5F283BA1F70895E0E0F0E18EEA808380
S1130A4081EA80838AED808382E1808388EC8083DD
S1130A5088EA80838FE3808385ED808380E88083C8
S1130A6081E8808380E5808389ED808381E28083CF
S1130A7080E2808382E080838BED808380E38083C7
S1130A808DEA8083108284EA808386EA80838FEAF9
S1130A9080830C940E0586EA809300102FEF8FE775
S1130AA091E0215080409040E1F700C000C087EA07
S1130AB0809300102FEF8FE791E021508040904009
S1130AC0E1F700C000C0089585B7806885BF089528
S1130AD090BD89B98AB188618AB980B5866880BDBC
S1130AE008955D9BFECF8CB908955F9BFECF8CB1BA
S1130AF008955058BB27AA270ED04DC13ED130F0DF
S1130B0043D120F031F49F3F11F41EF433C10EF4AD
S1130B10E095E7FB29C1E92F4FD180F3BA176207AB
S1130B2073078407950718F071F49EF567C10EF4F6
S1130B30E0950B2EBA2FA02D0B01B90190010C01E9
S1130B40CA01A0011124FF27591B99F0593F50F401
S1130B50503E68F11A16F040A22F232F342F442759
S1130B60585FF3CF469537952795A795F040539551
S1130B70C9F77EF41F16BA0B620B730B840BBAF021
S1130B809150A1F0FF0FBB1F661F771F881FC2F78C
S1130B900EC0BA0F621F731F841F48F487957795A0
S1130BA06795B795F7959E3F08F0B3CF9395880F57
S1130BB008F09927EE0F9795879508950CD0EBC010
S1130BC0E3D040F0DAD030F021F45F3F19F0CCC02C
S1130BD0511115C1CFC0F0D098F39923C9F355230F
S1130BE0B1F3951B550BBB27AA276217730784071C
S1130BF038F09F5F5F4F220F331F441FAA1FA9F3D2
S1130C0033D00E2E3AF0E0E830D091505040E695C3
S1130C10001CCAF729D0FE2F27D0660F771F881F24
S1130C20BB1F261737074807AB07B0E809F0BB0B13
S1130C30802DBF01FF2793585F4F2AF09E3F510537
S1130C4068F092C0DCC05F3FECF3983EDCF386951D
S1130C5077956795B795F7959F5FC9F7880F911DAD
S1130C609695879597F90895E1E0660F771F881F99
S1130C70BB1F621773078407BA0720F0621B730B4C
S1130C80840BBA0BEE1F88F7E095089504D068949E
S1130C90B111B5C0089598D088F09F5790F0B92F3E
S1130CA09927B751A0F0D1F0660F771F881F991FBD
S1130CB01AF0BA95C9F712C0B13081F09FD0B1E0F3
S1130CC008959CC0672F782F8827B85F39F0B93F03
S1130CD0CCF3869577956795B395D9F73EF49095BF
S1130CE08095709561957F4F8F4F9F4F0895E8943D
S1130CF009C097FB3EF490958095709561957F4F60
S1130D008F4F9F4F9923A9F0F92F96E9BB2793950D
S1130D10F695879577956795B795F111F8CFFAF41D
S1130D20BB0F11F460FF1BC06F5F7F4F8F4F9F4F4E
S1130D3016C0882311F096E911C0772321F09EE8AC
S1130D40872F762F05C0662371F096E8862F70E012
S1130D5060E02AF09A95660F771F881FDAF7880FEC
S1130D609695879597F9089597F99F6780E870E0BD
S1130D7060E008959FEF80EC089500240A9416160D
S1130D80170618060906089500240A941216130675
S1130D90140605060895092E0394000C11F4882303
S1130DA052F0BB0F40F4BF2B11F460FF04C06F5F1F
S1130DB07F4F8F4F9F4F089557FD9058440F551FF5
S1130DC059F05F3F71F04795880F97FB991F61F0C9
S1130DD09F3F79F087950895121613061406551F40
S1130DE0F2CF4695F1DF08C0161617061806991FAC
S1130DF0F1CF86957105610508940895E894BB27A1
S1130E0066277727CB0197F908950BD0C4CFB5DFB8
S1130E1028F0BADF18F0952309F0A6CFABCF112440
S1130E20EECFCADFA0F3959FD1F3950F50E0551F85
S1130E30629FF001729FBB27F00DB11D639FAA272B
S1130E40F00DB11DAA1F649F6627B00DA11D661F7A
S1130E50829F2227B00DA11D621F739FB00DA11D9B
S1130E60621F839FA00D611D221F749F3327A00D55
S1130E70611D231F849F600D211D822F762F6A2FF1
S1130E8011249F5750408AF0E1F088234AF0EE0F76
S1130E90FF1FBB1F661F771F881F91505040A9F783
S1130EA09E3F510570F060CFAACF5F3FECF3983EB0
S1130EB0DCF3869577956795B795F795E7959F5FEA
S1130EC0C1F7FE2B880F911D9695879597F9089584
S1130ED0CF93DF938230910510F482E090E0E091AB
S1130EE00202F091030220E030E0A0E0B0E030978D
S1130EF039F14081518148175907B8F0481759070B
S1130F0071F482819381109729F013969C938E93A8
S1130F1012972CC0909303028093020227C02115DC
S1130F20310531F04217530718F0A901DB0101C064
S1130F30EF019A01BD01DF010280F381E02DD7CFDB
S1130F4021153105F9F0281B390B2430310580F4C3
S1130F508A819B816115710521F0FB019383828352
S1130F6004C09093030280930202FE01329644C0AF
S1130F70FE01E20FF31F81939193225031093983CB
S1130F8028833AC02091000230910102232B41F4BE
S1130F902091020130910301309301022093000259
S1130FA020910001309101012115310541F42DB743
S1130FB03EB74091040150910501241B350BE0918B
S1130FC00002F0910102E217F307A0F42E1B3F0B7D
S1130FD02817390778F0AC014E5F5F4F24173507A7
S1130FE048F04E0F5F1F509301024093000281931B
S1130FF0919302C0E0E0F0E0CF01DF91CF9108953A
S1131000CF93DF93009709F487C0FC0132971382D2
S11310101282C0910202D0910302209781F42081B0
S11310203181280F391F80910002909101028217AB
S1131030930779F5F0930102E09300026DC0DE019D
S113104020E030E0AE17BF0750F412964D915C914A
S113105013979D014115510509F1DA01F3CFB383CB
S1131060A28340815181840F951F8A179B0771F4D5
S11310708D919C911197840F951F02969183808383
S113108012968D919C911397938382832115310538
S113109029F4F0930302E09302023EC0D9011396AF
S11310A0FC93EE9312974D915D91A40FB51FEA172F
S11310B0FB0779F480819181840F951F0296D901F1
S11310C011969C938E938281938113969C938E9315
S11310D01297E0E0F0E08A819B81009719F0FE010D
S11310E0EC01F9CFCE01029628813981820F931F3A
S11310F020910002309101022817390769F43097D2
S113110029F4109203021092020202C01382128286
S1131110D0930102C0930002DF91CF9108950F9301
S11311201F93CF93DF93EC018B01009731F461158A
S1131130710519F480E090E038C06EE070E081E061
S113114090E00E94ED0AFC010097A1F380E88383FC
S11311500115110571F01387028781E8838380915B
S1131160040290910502892B21F4F0930502E09387
S113117004022097C9F0D187C0878381826083836A
S11311808091060290910702892B71F4F093070273
S1131190E09306028091080290910902892B21F4C0
S11311A0F0930902E0930802CF01DF91CF911F91E0
S11311B00F910895A0E0B0E0E0EEF8E00C94C60BC7
S11311C0FE01359661917191AF0180910602909173
S11311D007020E941B09E2E00C94E20B0F931F9399
S11311E0CF93DF93E0910602F0910702238121FF60
S11311F01BC0EC0100E010E089916091060270913F
S11312000702DB011896ED91FC911997882331F0C0
S11312100995892B89F30FEF1FEFEECF8AE009952B
S1131220892B11F4C80102C08FEF9FEFDF91CF919A
S11312301F910F910895ACE0B0E0E1E2F9E00C9465
S1131240B60B7C016B018A01FC0117821682838133
S113125081FFBDC1CE0101964C01F7019381F601D6
S113126093FD859193FF81916F01882309F4ABC1AC
S1131270853239F493FD859193FF81916F01853215
S113128029F4B70190E00E94260BE7CF512C312CB2
S113129020E02032A0F48B3269F030F4803259F02F
S11312A0833269F420612CC08D3239F0803339F4F3
S11312B0216026C02260246023C0286021C027FD4D
S11312C027C030ED380F3A3078F426FF06C0FAE034
S11312D05F9E300D1124532E13C08AE0389E300DCA
S11312E01124332E20620CC08E3221F426FD6BC1F2
S11312F0206406C08C3611F4206802C0883641F49C
S1131300F60193FD859193FF81916F018111C1CF06
S1131310982F9F7D9554933028F40C5F1F4FFFE363
S1131320F9830DC0833631F0833771F0833509F0CA
S11313305BC022C0F801808189830E5F1F4F442463
S11313404394512C540115C03801F2E06F0E711C06
S1131350F801A080B18026FF03C0652D70E002C0B3
S11313606FEF7FEFC5012C870E941B0B2C018301BB
S11313702C852F77222E17C03801F2E06F0E711CD6
S1131380F801A080B18026FF03C0652D70E002C083
S11313906FEF7FEFC5012C870E94090B2C012C8570
S11313A02068222E830123FC1BC0832D90E0481665
S11313B05906B0F4B70180E290E00E94260B3A94FB
S11313C0F4CFF50127FC859127FE81915F01B701D8
S11313D090E00E94260B31103A94F1E04F1A510824
S11313E04114510471F7E5C0843611F0893639F59A
S11313F0F80127FF07C060817181828193810C5FAE
S11314001F4F08C060817181882777FD8095982FD0
S11314100E5F1F4F2F76B22E97FF09C090958095CF
S1131420709561957F4F8F4F9F4F2068B22E2AE0B1
S113143030E0A4010E94580BA82EA81844C0853798
S113144029F42F7EB22E2AE030E025C0F22FF97F56
S1131450BF2E8F36C1F018F4883579F0B4C08037C8
S113146019F0883721F0AFC02F2F2061B22EB4FEBF
S11314700DC08B2D8460B82E09C024FF0AC09F2F95
S11314809660B92E06C028E030E005C020E130E0C7
S113149002C020E132E0F801B7FE07C0608171812B
S11314A0828193810C5F1F4F06C06081718180E04F
S11314B090E00E5F1F4FA4010E94580BA82EA8189D
S11314C0FB2DFF77BF2EB6FE0BC02B2D2E7FA51450
S11314D050F4B4FE0AC0B2FC08C02B2D2E7E05C009
S11314E07A2C2B2D03C07A2C01C0752C24FF0DC03F
S11314F0FE01EA0DF11D8081803311F4297E09C0BB
S113150022FF06C07394739404C0822F867809F076
S1131510739423FD13C020FF06C05A2C731418F4CF
S1131520530C5718732C731468F4B70180E290E0DD
S11315302C870E94260B73942C85F5CF731410F41A
S1131540371801C0312C24FF12C0B70180E390E0AA
S11315502C870E94260B2C8522FF17C021FF03C075
S113156088E590E002C088E790E0B7010CC0822FC4
S1131570867859F021FD02C080E201C08BE227FD8C
S11315808DE2B70190E00E94260BA51438F4B70150
S113159080E390E00E94260B5A94F7CFAA94F401BA
S11315A0EA0DF11D8081B70190E00E94260BA11085
S11315B0F5CF332009F451CEB70180E290E00E94C8
S11315C0260B3A94F6CFF7018681978102C08FEFFC
S11315D09FEF2C96E2E10C94D20B0F931F93CF93C1
S11315E0DF93869F8001879F100D969F100D112415
S11315F0C8010E946807EC01009729F0A80160E087
S113160070E00E94140BCE01DF91CF911F910F91D6
S11316100895FC010590615070400110D8F7809541
S113162090958E0F9F1F0895DC0101C06D9341506A
S11316305040E0F70895FC016150704001900110A2
S1131640D8F7809590958E0F9F1F08950F931F9341
S1131650CF93DF93182F092FEB018B8181FD03C0FA
S11316608FEF9FEF20C082FF10C04E815F812C81DD
S11316703D81421753077CF4E881F9819F012F5F74
S11316803F4F39832883108306C0E885F985812F6D
S11316900995892B29F72E813F812F5F3F4F3F8387
S11316A02E83812F902FDF91CF911F910F91089559
S11316B0FA01AA27283051F1203181F1E8946F937F
S11316C06E7F6E5F7F4F8F4F9F4FAF4FB1E03ED025
S11316D0B4E03CD0670F781F891F9A1FA11D680FC3
S11316E0791F8A1F911DA11D6A0F711D811D911DF6
S11316F0A11D20D009F468943F912AE0269F11246B
S11317003019305D3193DEF6CF010895462F4770CE
S1131710405D4193B3E00FD0C9F7F6CF462F4F7029
S1131720405D4A3318F0495D31FD4052419302D087
S1131730A9F7EACFB4E0A69597958795779567952D
S1131740BA95C9F700976105710508959B01AC012D
S11317500A2E06945795479537952795BA95C9F754
S1131760620F731F841F951FA01D08952F923F922F
S11317704F925F926F927F928F929F92AF92BF929D
S1131780CF92DF92EF92FF920F931F93CF93DF9349
S1131790CDB7DEB7CA1BDB0B0FB6F894DEBF0FBEA6
S11317A0CDBF09942A88398848885F846E847D84F3
S11317B08C849B84AA84B984C884DF80EE80FD80F5
S11317C00C811B81AA81B981CE0FD11D0FB6F8946B
S11117D0DEBF0FBECDBFED010895F894FFCF2C
S11317DE00000A022000C35C2A6F6F2A5CC35541C5
S11317EE525420736574757020646F6E6500535285
S11317FE414D20736574757020646F6E65004A4F99
S113180E5920736574757020646F6E6500496E6936
S113181E7469616C697A6174696F6E20646F6E6548
S113182E004D61696E206D656E750053637265655A
S113183E6E206F7074696F6E73004F7468657220DA
S113184E6F7074696F6E73005061727479206D6F6E
S113185E6465005469746C653A2025730A006361EB
S113186E736520555000496E20646F776E2E0053B9
S113187E656C65637420706F733A2025640A004F9B
S113188E7574206F6620646F776E006361736520D4
S113189E5249474854005375626D656E7520666FE4
S11318AE756E642100414354494F4E2100636173A8
S11318BE65204C4546540058207A65726F3A2025AF
S11318CE640A0059207A65726F3A2025640A000072
S9030000FC
